:100000000C94B3060C94EB060C94EB060C94AE29FE
:100010000C94EB060C94EB060C94EB060C94EB069C
:100020000C94EB060C94EB060C94B0110C94CF15C9
:100030000C9451220C94EB060C94EB060C94EB06FA
:100040000C94EB060C94EB060C94EB060C94EB066C
:100050000C94EB060C9489120C94EB060C94EB06B2
:100060000C94EB060C94EB060C94EB060C94EB064C
:100070000C94EB060C94EB060C94EB060C94EB063C
:100080000C94EB060C94EB060C94EB060C94EB062C
:100090000C94EB060C94EB060C94EB060C94EB061C
:1000A0000C94EB060C94EB060C94EB06202020201D
:1000B0006162636465666768696A6B6C6D6E6F70B8
:1000C0007172737475767778797A31323334353664
:1000D00037383930524542545F2D3D5B5D5C233BE0
:1000E00027602C2E2F2020202B4614001A000900F8
:1000F00013000500002104001500160017000A0077
:1001000029001D001B000600070019000000000068
:10011000000081522C43E200312833001C001800FB
:100120000F000D00340012000C0008001100100038
:1001300028453800370036000B000E000000000094
:10014000000082522A44A2522B005E005B0059003C
:100150005A005F00E000230020001E001F00240062
:100160000100540055005600570026020000000010
:100170000000015200520100E30060005D006200D7
:100180005C00610067002500220027002100260096
:1001900058002302220236006300270200000000FC
:1001A000000000522A0001002B00000022022F0054
:1001B00030000000E000360237022602270231023A
:1001C000010023021F022F0230022402000000005F
:1001D0000000005200520100E3000000210235003F
:1001E0000000000034022D022E002E022D003502E8
:1001F000280020022502330238021E0200000000FF
:10020000000002522A0001002B0049004B0052005E
:100210004E004C00E0004A00500051004F004D00DD
:100220000100447E417E467E427E457E0000000005
:100230000000005200520100E3000000AB00A900E2
:10024000AC00000000520000AD00A800AE000000AD
:10025000280000000000AA000000000000000000CC
:1002600000000052437E01002B0000000000CD0082
:1002700000000000E0000000CF00CE00D000000031
:10028000010000000000000000000000000000006D
:10029000000000522C000100E3000000DC00D90047
:1002A000DB00000000520000D200D300D1000000AB
:1002B00028000000D500DA00D40000000000000093
:1002C000000000522A0001002B000000BE000000C8
:1002D000BD000000E0003F003C003A003B00400051
:1002E0000100000000004400450000000000000084
:1002F0000000005200520100E3000000B20065005F
:1003000046000000005241003E0043003D00420014
:10031000280047005300480039000000000000009A
:10032000000000522A0001000052007C037C027C85
:10033000A700A60000000000000000000000000070
:100340000000477E000000000000000000000000E8
:1003500000000152035200000000000000000000F5
:10036000000000000000000000000000000000008D
:100370000552000000000000000000000000000026
:1003800000000252045200002B4D14001A00090014
:1003900013000500002804001500160017000A00CD
:1003A00029001D001B0006000700190000000000C6
:1003B000000088522C4AE000312433001C00180051
:1003C0000F000D00340012000C0008001100100096
:1003D000284C3800370036000B000E0000000000EB
:1003E000000089522A4BA2522B005E005B0059008C
:1003F0005A005F000100230020001E001F0024009F
:10040000010054005500560057002602000000006D
:100410000000085207520100E20060005D00620027
:100420005C006100670025002200270021002600F3
:100430005800230222023600630027020000000059
:10044000000007522A0001002B00000022022F00AA
:1004500030000000E3003602370226022702310294
:10046000010023021F022F023002240200000000BC
:100470000000075207520100E2000000210235008F
:100480000000000034022D022E002E022D00350245
:10049000280020022502330238021E02000000005C
:1004A000000009522A0001002B0049004B005200B5
:1004B0004E004C00E3004A7E500051004F004B7E3E
:1004C00001004D7E487E4F7E497E4E7E000000003A
:1004D0000000075207520100E2000000BB00A90023
:1004E000BC00000007520000AD00A800AE000000F4
:1004F000280000004D00AA004A0000000000000093
:10050000000007524C7E01002B0000000000CD00CF
:1005100000000000E3000000CF00CE00D00000008B
:1005200001000000000000000000000000000000CA
:10053000000007522C000100E2000000DC00D9009E
:10054000DB00000007520000D200D300D100000001
:1005500028000000D500DA00D400000000000000F0
:10056000000007522A0001002B000000BE0000001E
:10057000BD000000E3003F003C003A003B004000AB
:1005800001000000000044004500000000000000E1
:100590000000075207520100E2000000B2006500AF
:1005A00046000000075241003E0043003D0042006B
:1005B00028004700530048003900000000000000F8
:1005C000000007522A0001000752007C037C027CD5
:1005D000A700A600000000000000000000000000CE
:1005E0000000407E0000000000000000000000004D
:1005F000000008520A520000000000000000000045
:1006000000000000000000000000000000000000EA
:100610000C5200000000000000000000000000007C
:10062000000009520B52000000DA0281FFD9F1DB11
:1006300020A4A62EAF00A0C0D30000A1C8D3000004
:10064000AED580A81F408D142000556E64656600ED
:1006500041646A757374005261697365004C6F7709
:1006600065720044656661756C74004C61796572F1
:100670003A20003A002C206B00780080818283842D
:1006800085868788898A8B8C8D8E8F9091929394A2
:10069000A0A1A2A3A4A5A6A7A8A9AAABACADAEAFE2
:1006A000B0B1B2B3B4C0C1C2C3C4C5C6C7C8C9CA59
:1006B000CBCCCDCECFD0D1D2D3D40000AF00AE05BD
:1006C000010902A10185020901A1000509190129F9
:1006D00008150025019508750181020501093009F9
:1006E000311581257F950275088106093815812508
:1006F0007F950175088106050C0A38021581257F52
:10070000950175088106C0C005010980A101850316
:1007100019012AB700150126B7009501751081004F
:10072000C0050C0901A101850419012AA0021501C7
:1007300026A002950175108100C005010906A101DE
:100740008506050719E029E71500250195087501BB
:1007500081020507190029EF1500250195F07501A3
:100760008102050819012905950575019102950178
:1007700075039101C005010906A101050719E029CA
:10078000E71500250195087501810295017508811D
:10079000010507190029FF150026FF0095067508B9
:1007A000810005081901290595057501910295013A
:1007B00075039101C009023B00020100A0FA09047F
:1007C0000000010301010009211101000122400084
:1007D000070581030800010904010001030000006E
:1007E00009211101000122B6000705820320000142
:1007F000120100020000000853460100010001023E
:1008000000010C0343006F0072006E0065000000E1
:10081000100366006F006F007300740061006E00CB
:100820000000040309040000000000003E5B4F5B71
:100830003E003E6B4F6B3E001C3E7C3E1C00183C55
:100840007E3C18001C577D571C001C5E7F5E1C0000
:1008500000183C180000FFE7C3E7FF000018241849
:100860000000FFE7DBE7FF0030483A060E002629CC
:1008700079292600407F05050700407F05253F00B8
:100880005A3CE73C5A007F3E1C1C0800081C1C3EDA
:100890007F0014227F2214005F5F005F5F00060963
:1008A0007F017F00006689956A006060606060007B
:1008B00094A2FFA2940008047E04080010207E2069
:1008C000100008082A1C0800081C2A0808001E102E
:1008D000101010000C1E0C1E0C0030383E3830007A
:1008E000060E3E0E060000000000000000005F0043
:1008F0000000000700070000147F147F1400242A62
:100900007F2A1200231308646200364956205000E3
:10091000000807030000001C224100000041221CC7
:1009200000002A1C7F1C2A0008083E0808000080DE
:10093000703000000808080808000000606000002F
:100940002010080402003E5149453E0000427F400D
:1009500000007249494946002141494D33001814AD
:10096000127F10002745454539003C4A494931006E
:1009700041211109070036494949360046494929AC
:100980001E000000140000000040340000000008B9
:1009900014224100141414141400004122140800FD
:1009A0000201590906003E415D594E007C121112A8
:1009B0007C007F49494936003E41414122007F4148
:1009C00041413E007F49494941007F090909010031
:1009D0003E41415173007F0808087F0000417F417C
:1009E00000002040413F01007F08142241007F4069
:1009F000404040007F021C027F007F0408107F00FF
:100A00003E4141413E007F09090906003E41512116
:100A10005E007F0919294600264949493200030131
:100A20007F0103003F4040403F001F2040201F0047
:100A30003F4038403F006314081463000304780407
:100A400003006159494D4300007F414141000204C8
:100A500008102000004141417F000402010204000F
:100A600040404040400000030708000020545478F4
:100A700040007F2844443800384444442800384427
:100A800044287F0038545454180000087E0902009E
:100A90001824241C78007F080404780000447D405A
:100AA00000002040403D00007F102844000000412D
:100AB0007F4000007C04780478007C0804047800FF
:100AC0003844444438007C1824241800182424187E
:100AD0007C007C0804040800485454542400040496
:100AE0003F4424003C4040207C001C2040201C004F
:100AF0003C4030403C004428102844004C909090EA
:100B00007C004464544C440000083641000000005E
:100B100077000000004136080000020102040200D4
:100B20003C2623263C0000000000000000000000DE
:100B3000000000000000C0E0F0F8F81800C0F0FC71
:100B4000FEFFFFFFFFFFFFFF7E0000000000000030
:100B5000000080C0E0E0E0E0E0E0E0E0C080000015
:100B6000000080C0E0E0E0E0E0E0E0E0C080000005
:100B700000E0E0C0C0E0E0E0E00000E0E0C0C0E095
:100B8000E0E0E0E0C0800000000080C0E0E0E0E0E5
:100B9000E0E0E0E0C0800000000000000000000095
:100BA00000000000E0F0F0F0E0ECEEF7F370200061
:100BB0007C7C7C7E007E7E7E7F7F7F000080C0E02C
:100BC0007E5B4F5BFEC00000C000DCD7DEDEDED700
:100BD000DC00C00000000000000000000000000079
:100BE000000000000000000000000000000000F80D
:100BF000FCFEFFE000FFFFFFFFFFFF80FFFFFFFFA6
:100C0000FFFFFFFFFF1F07010000000000000000C2
:100C100000FFFFFF8100000000000081C3C3C3008C
:100C200000FFFFFF8100000000000081FFFFFF00C8
:100C300000FFFFFF01000000000000FFFFFF0100B8
:100C400000000001FFFFFF0000FFFFFF9D1C1C1CB8
:100C50001C1C1C9DDFDFDF00000000000000000006
:100C6000000000000F1F3F7F7F7F7F7F3F1E0C0033
:100C70001F1F1F3F003F3F3F7F7F7F00307B7F78FC
:100C800030202030787F3B0003000F7F0F0F0F7F55
:100C90000F00030000000000000000000000000042
:100CA0000000000000000000000000000000000341
:100CB0000F1F3F3F3F3F1F1F3F3F7F7F7F3F3F1F34
:100CC0003F7F7F7F7F7C7878381C0F00000000001A
:100CD00000000103070707070707070703010000D4
:100CE00000000103070707070707070703010000C4
:100CF00000070707000000000000000707070000CA
:100D000000000000070707000000010307070707AE
:100D100007070707030100000000000000000000B3
:100D200000000000000000000000000000000000C3
:100D300000000000000000000000000000000000B3
:100D400000000000000000000000000000000000A3
:100D50000000000000000000000000000000000093
:100D600000000000000011241FBECFEFDAE0DEBF5C
:100D7000CDBF04B603FE18C08091330590913405B1
:100D8000A0913505B09136058730904BA740B04B08
:100D900059F41092330510923405109235051092D3
:100DA0003605E0E0F8E3099511E0A0E0B1E0E0EA03
:100DB000F8E502C005900D92AC37B107D9F725E0F0
:100DC000ACE7B1E001C01D92A333B207E1F70E9486
:100DD00078220C940F2C0C9400008F929F92AF926B
:100DE000BF92CF92DF92EF92FF9290912D019813D4
:100DF00005C090912703903209F44BC080932D01D8
:100E000090E290932703C82ED12CF12CE12C109264
:100E10002603C701B6012AE030E040E050E00E941E
:100E2000352B605D603331F0C114D104E104F1046D
:100E300009F460E26093250360E28AE0C816D104F9
:100E4000E104F10490F08AE0882E912CA12CB12CC1
:100E5000C701B601A50194010E94352BCA01B90151
:100E6000A50194010E94352B605D6093240320E26C
:100E700084E6C816D104E104F10448F0C701B601C4
:100E800024E630E040E050E00E94352B205D2093C6
:100E9000230383E293E0FF90EF90DF90CF90BF9029
:100EA000AF909F908F900895482F20911F039091AD
:100EB000E60257E0291302C080E0089530E0529F17
:100EC000F001539FF00D1124E951FD4F818168130A
:100ED00006C08081481303C085818111EECF2F5F4A
:100EE0003F4F2770E7CFFC01AC014C5F5F4F8FEFA6
:100EF00091E32191822728E030E087FF09C0880F25
:100F0000892721503109C9F7E417F50791F70895AA
:100F1000880FF7CFE8EDF0E080818E7F808310921C
:100F2000E2001092DA001092E100A0EEB0E08C91A5
:100F300081608C9380818F77808319BCA7EDB0E0AE
:100F40008C918E7F8C9380818F7E80831092B702EC
:100F500008952091E4003091E50095E6A9012091E3
:100F6000EC00822F817020FF06C08091E80080FF96
:100F700006C080E008952091E80022FD1AC080910B
:100F8000DC02882389F0853089F08091EB0085FDB3
:100F90000FC02091E4003091E50042175307F9F2A9
:100FA0009150E1F684E0089582E0089583E0089589
:100FB00081E008958091DE0287FF13C08091E800F0
:100FC00082FF06C08091E8008B778093E80004C020
:100FD0008091DC028111F2CF08958091DC02882398
:100FE000D9F38091E80080FFF8CF8091E8008E77F8
:100FF000ECCF982F9093E900242F762F50E089179B
:1010000031F07091EC002091ED005091F00021FD45
:1010100007C09F5F973071F78093E90081E00895E2
:101020003091EB003E7F3093EB003091ED003D7F3F
:101030003093ED003091EB0031603093EB00709312
:10104000EC002093ED005093F0002091EE0027FD7E
:10105000E0CF80E00895B0E0A0E0E1E3F8E00C9498
:10106000E82AC8EDD0E088818F7E8883E7EDF0E044
:1010700080818160808384E082BF81E08093B702B9
:1010800088818E7F888302EE10E0F8011082109232
:10109000DA0081EEC82ED12CF601108288818F777C
:1010A000888388818068888388818F7D888319BC44
:1010B0001092DC021092DD021092DB021092DA0232
:1010C00090EEE92EF12CF70180818B7F808388815F
:1010D0008160888342E060E080E00E94F907F601C9
:1010E00080818E7F8083F801808181608083808110
:1010F00088608083F70180818E7F80838881806112
:101100008883CDB7DEB7E8E00C94042BFC01809116
:10111000E4029091E50286179707A0F0611571052A
:1011200029F49091E8009E779093E80090E0611593
:10113000710551F4911108C08091E80082FF34C01C
:1011400080E00895BC01F2CF8091DC028823C1F1D8
:101150008530C1F18091E80083FD30C08091E800C6
:1011600082FDEACF8091E80080FFE1CF8091F3001B
:101170002091F200382F6115710519F028303105E2
:1011800058F091E02830310509F090E02091E80016
:101190002E772093E800CBCF81918093F1006150AE
:1011A00071092F5F3F4FE7CF8091DC02882341F028
:1011B000853041F08091E80083FFBECF81E0089543
:1011C00082E0089583E008958091B90208952FB7D1
:1011D000F8946091B1027091B2028091B302909143
:1011E000B4022FBF089520912C012223C9F0209131
:1011F000B50227FF15C0E62FE695E695E695EE3198
:10120000D8F4E80FF92FF11D677021E030E001C03C
:10121000220F6A95EAF72095828128232283089578
:10122000FC01329608962191621303C0DF011197E9
:101230001C92E817F907B9F7089520912C01222391
:10124000C1F02091B50227FF14C0E62FE695E69580
:10125000E695EE31F8F4E80FF92FF11D677021E003
:1012600030E001C0220F6A95EAF78281822B8283E7
:101270000895FC0132962FEF30E04191641751F050
:101280002F3F19F4411101C0232F3F5F3630A9F7DA
:101290002F3F09F40895820F911D27FD9A95FC01B7
:1012A00062830895A3E0B0E0E8E5F9E00C94EE2A4B
:1012B0002091AE023091AF0228173907A1F0909328
:1012C000AF028093AE02E091AC02F091AD02309794
:1012D00051F024E029839B838A830680F781E02DE7
:1012E000CE01019609952396E2E00C940A2BA3E027
:1012F000B0E0EDE7F9E00C94EE2A2091AA023091DB
:10130000AB0228173907A1F09093AB028093AA0291
:10131000E091AC02F091AD02309751F023E02983C7
:101320009B838A830680F781E02DCE010196099583
:101330002396E2E00C940A2B8091990280FD16C05E
:1013400081FD16C082FD16C0809198028823A1F00D
:10135000883280F428E0829FC001112468E270E0A6
:101360000E94212B862F672B39F0089582E0089583
:1013700084E0089588E0089581E0089580919902BD
:1013800080FD16C081FD16C082FD18C080919702B5
:10139000882391F08C3390F428E3829FC0011124BC
:1013A0006CE370E00E94212B862F672B49F0089593
:1013B0008EE008958CE1089588E0089588E308950B
:1013C00081E0089580E00895F894E82FE295EF70A9
:1013D000F0E031A1282F2F7081E090E001C0880F4C
:1013E0002A95EAF7982F9095932391A392A1892BA0
:1013F00082A3789408959091B50292FF06C0282F99
:1014000028712830F9F4877F846093FF06C0282F65
:1014100028712831F1F4877E84612091B60220FF83
:1014200006C0382F38713830D9F4877F816021FFAA
:1014300006C0282F28712831D1F4877E816194FD60
:10144000877E0895282F24712430F9F68B7F8860D9
:10145000DCCF282F2471243101F78B7E8861DDCF0A
:10146000382F3171313019F78E7F8860E0CF282F07
:101470002171213121F78E7E8861E1CF823891057B
:10148000B9F1B0F48133910509F47DC048F4893293
:10149000910509F46DC08A32910509F47BC0089565
:1014A0008533910509F45FC08933910509F10895E9
:1014B000833E9105D9F138F4803E910529F1823EB1
:1014C000910579F10895863E9105D9F1873E910500
:1014D00009F43EC0843E910541F52091B60221FFFA
:1014E00024C08091B50284FD19C087EE90E0089574
:1014F0002091B502237009F05AC02091B60223FF53
:1015000014C089E290E008952091B50220FD38C012
:101510003091B60230FF09C024FF43C090E080E064
:1015200008952091B50222FDF7CF08952091B502CC
:1015300022FD3AC03091B60230FD39C024FFF5CF0C
:10154000EDCF2091B50223FFF0CF24FDE7CFCDCF23
:101550002091B50223FD2EC03091B60231FFEECFAF
:1015600084EE90E008952091B50225FFDECFC9CF2B
:101570002091B50225FD21C02091B60223FFD5CFD1
:1015800089E390E0D2CF2091B50226FFCECF8AE248
:1015900090E008952091B50226FFC7CF81E390E047
:1015A000089583EE90E0089582EE90E0089580EE35
:1015B00090E0089586EE90E0089585E390E0089528
:1015C000972F7830B8F46630A8F48E30B0F470E01D
:1015D00026E0929F600D711D1124FB0190E3899F0D
:1015E000E00DF11D1124EE0FFF1FE851FF4F859113
:1015F0009491089580E090E0089581E0FCCF1F93DE
:10160000CF93DF930E943E0AEC01C11580E5D80715
:10161000F0F5C11580E4D80708F09CC0C03ED105A4
:1016200020F5CD3CD10508F082C0C83AD10578F448
:10163000C53AD10508F073C0C130D10519F1209722
:1016400009F1C430D105F0F4D0E0C0E01BC0C33CC8
:10165000D105D0F7C85AD0E0CC0FDD1FCF5CDE4FEC
:101660000990D881C02DD4640DC0C11580E2D8077F
:1016700008F0D1C0C11581E0D80708F05AC0C83EB3
:10168000D10510F7CE01DF91CF911F910895C0369B
:1016900082E5D80718F5C03482E5D80708F06BC09A
:1016A000C03282E5D80708F05FC0C11582E5D807CF
:1016B00008F497C02C2F2695269580E2289F90014C
:1016C00011248C2F8370C1E0D0E002C0CC0FDD1F4D
:1016D0008A95E2F7C22BD32BDD68D4CFC03A82E5DE
:1016E000D80760F4C03882E5D80708F459C0CF7134
:1016F000D0E0DC2FCC27C46FD06AC4CFC03C82E5D9
:10170000D80708F462C0C03E82E5D80708F09CCF35
:10171000DC2FCC27CC27DF71C06FD06AB3CFC55A7E
:10172000D0E0C25DDE4FC881D0E0D064ABCFD065E1
:10173000A9CF8D2F0E94FB09182FCE0199270E9457
:101740003E0AC12FD0E0DC2FCC27CC27DF71C82B7D
:10175000D92B98CFCE0199270E943E0ACC27DF7063
:10176000C82BD92BD06A8ECFCF71D0E0DC2FCC27FD
:10177000C16FD06A87CF2C2F26952695277080E2DF
:10178000289F900111248C2F8370C1E0D0E002C00B
:10179000CC0FDD1F8A95E2F7C22BD32BDC6872CF0A
:1017A0002C2F26952695277080E2289F90011124E2
:1017B0008C2F8370C1E0D0E002C0CC0FDD1F8A9572
:1017C000E2F7C22BD32BDA685DCF8C2F8F710E948A
:1017D000FB09C82FD0E0DC2FCC27CC27DF71D062EB
:1017E00051CF8C2F8F710E94FB0955E0D695C7957C
:1017F0005A95E1F7CF70D0E0DC2FCC27282F30E0CE
:1018000084FF05C044E0220F331F4A95E1F7C22B45
:10181000D32BD06937CF8D2F8F710E94FB09182FE2
:10182000CE0199270E943E0AC12FD0E0DC2FCC27A1
:10183000CC27DF71C82BD92BD2CF80959091E201B4
:1018400098239093E201089580911F039091E602FE
:10185000981301C008958F5F8770FACFB0E0A0E0C1
:10186000E4E3FCE00C94E72A7C010091650210910E
:1018700066028091E3019091E401082B192BCFE0DF
:10188000D0E0CC24C394D12CBC2EC6010C2E02C0B7
:10189000880F991F0A94E2F780239123892B49F43A
:1018A000219790F7B12C8B2DCDB7DEB7E9E00C94E2
:1018B000032BB7018C2F0E94E00A0E94FF0A0197B8
:1018C00079F3F1CFCF93DF93EC010E942E0CBE0190
:1018D0000E94E00A0E94FF0ADF91CF91089598309C
:1018E00078F5863068F5E82FF0E086E0989FE00D07
:1018F000F11D11249E2F977083E0F695E7958A9548
:10190000E1F7EE0FFF1FEE0FFF1FE056FE4F50E016
:1019100040E080E0219130E0092E02C03695279505
:101920000A94E2F721703327042E01C0220F0A9493
:10193000EAF7822B4F5F5F4F4430510559F7089506
:1019400080E00895983098F5863088F5E82FF0E02B
:1019500086E0989FE00DF11D11248E2F877041E0E5
:1019600001C0440F8A95EAF783E0F695E7958A95DA
:10197000E1F7EE0FFF1FEE0FFF1FE056FE4F30E0C6
:1019800020E070E05191DF011197CB01022E02C0DF
:10199000969587950A94E2F781708195852784232F
:1019A00085278C932F5F3F4F2430310559F70895D9
:1019B0009093660280936502089521E030E002C0B2
:1019C000220F331F8A95E2F72095309580916502AA
:1019D00090916602822393230E94D80C08959091DF
:1019E000BF01809589238093BF01282F277069F458
:1019F000891759F09091B60292FF07C08695869597
:101A000086950E94DD0C1092BF01089521E030E020
:101A100002C0220F331F8A95E2F7809165029091F0
:101A20006602822B932B0E94D80C08959093E401B8
:101A30008093E3010895FC0124812223C1F0808179
:101A400091810E94620C92959F70963091F058F4AB
:101A5000925F9F70923058F4803F19F030F4883EC6
:101A600030F481E008959A5FF4CF843FD1F380E0B1
:101A70000895883EB0F3813FD1F7F3CFA6E0B0E000
:101A8000E4E4FDE00C94ED2A49835A8349815A81AC
:101A90009923A1F0222391F0CA010E942E0C182F45
:101AA000682F89819A810E94A20C69817A81812F95
:101AB0000E94E00A2696E3E00C94092BCA010E94DA
:101AC0006F0C182FF2CFFC01262F408151816281CB
:101AD0007381848195810E943E0D08959C01832F1E
:101AE000817031FD826032FD846033FD886008952D
:101AF000CF93DF93682F81E06A3019F06D3031F4B5
:101B000080E00E94060EDF91CF910895809131050B
:101B10009091320526E0FC01ABE2B5E001900D9218
:101B20002A95E1F7603E08F458C026E0FC011192C6
:101B30002A95E9F7C0913105D091320546E050E091
:101B4000BE018BE295E00E94A72B9E012B523340F1
:101B5000892B41F1C90145E0969587954A95E1F7B2
:101B600041E050E0BA0102C0660F771F8A95E2F7A4
:101B7000CB016091290370912A03862B972BB90121
:101B80006B5F7F4FE5E076956795EA95E1F702C0D8
:101B9000440F551F6A95E2F7842B952B90932A03E7
:101BA000809329032A5F3F4F40912803642F70E000
:101BB000C9010E94CA2A481B463010F4240F311D67
:101BC000211572E0370710F030E020E0255D3C4F32
:101BD000309332052093310596CFF6E06F9FB00128
:101BE00011246A5D774F46E050E00E949E2BA2CF01
:101BF000CF93DF93EC01FE018491811103C0DF914B
:101C0000CF9108950E94780D2196F5CFCF93382F6C
:101C1000E0913105F0913205EB52F3402091280319
:101C2000622F70E0CF010E94CA2A281B822F332323
:101C300061F066E00E94152BC82FC15010F4CF91BF
:101C4000089580E20E94780DF8CF9F01280F311D82
:101C50002115324018F080E0F0E0E0E08E0F9F2F79
:101C6000911D855D9C4F9093320580933105E7CFA0
:101C70000E94F80D81E00E94060E08958091E20115
:101C80009091E101892B80937E019091E00199234D
:101C9000A1F0892B80937E0180912C018823E1F1B2
:101CA0008091B50287FF38C08EE1E0E8F1E090E076
:101CB0008150A0F591111092E00140E250E060ECFB
:101CC00071E08EE791E00E94A72B892B21F180E241
:101CD000EEE7F1E0A0ECB1E001900D928A95E1F71A
:101CE000E091AC02F091AD023097A9F080912C0107
:101CF000882359F08091B50287FF07C080917E014B
:101D000080937F0186E080937E010280F381E02D45
:101D10008EE791E00995089586E0C7CF21912223AF
:101D200039F29F5FC5CF882341F080959091E10102
:101D300089238093E1010E943E0E0895882339F0A3
:101D40009091E101982B9093E1010E943E0E08953D
:101D5000882321F00E941D0C0E943E0E08958823C6
:101D600039F09091E201982B9093E2010E943E0E8F
:101D700008950F931F93CF93DF93EC01FC01019023
:101D80000020E9F78F0101501109C017D10728F091
:101D9000DF91CF911F910F91089589910E94780D45
:101DA000F4CF0F931F93CF93DF938B01EA019091B0
:101DB000DC02943061F58093E9008FEF9091E800A8
:101DC000815095FD06C095ED9A95F1F700008111BF
:101DD000F5CF8091E80085FF1AC00E94A907811104
:101DE00011C08091E80085FD06C08091E8008E77E3
:101DF0008093E800F2CFF80181918F018093F10088
:101E0000219779F78091E8008E778093E800DF9141
:101E1000CF911F910F91089543E050E0BC0182E003
:101E20000E94D10E089546E050E0BC0182E00E947D
:101E3000D10E0895CF93DF93EC0180912C01811195
:101E400011C048E050E0BE0181E00E94D10E80E266
:101E5000FE01AAEBB2E001900D928A95E1F7DF91C5
:101E6000CF9108958091B50287FF05C040E282E0DE
:101E700050E0BE01EACF48E081E0FACFB0E0A0E058
:101E8000E4E4FFE00C94E62A7C015B016A018091A6
:101E9000070201E010E08A3010F40AE010E0C1E02F
:101EA000D0E0B501C701F6010995811104C0219662
:101EB0000C171D072CF4CDB7DEB7EAE00C94022B0B
:101EC000CC9F9001CD9F300D300D112490E080E02B
:101ED00045E34A95F1F70000019682179307C1F791
:101EE000E0CF8091F101811110C08091D800806114
:101EF0008093D8008AE18A95F1F700C08091D900DB
:101F000080FF0AC081E08093F10181E09091F101AE
:101F1000913009F080E0089582E08093F1010E9401
:101F20008A071092DC02F1CF0E94710F882359F0CA
:101F3000E091AC02F091AD02309729F00190F08170
:101F4000E02D0995089580E008950F931F930E9456
:101F5000710F882329F00E94E7081F910F910895BF
:101F60000E94E708009108021091090220910A02DC
:101F700030910B02600F711F821F931FEECFB0E0F4
:101F8000A0E0E5ECFFE00C94E82A6C017B0164E63C
:101F900070E088E70E9428288C01E601EC0CFD1C0B
:101FA00017FD0BC0FE01849164E670E00E94942846
:101FB0008C012196CE15DF0599F70E940A2981E050
:101FC0000115110509F080E0CDB7DEB7E8E00C940B
:101FD000042B8091A8029091A902911103C091E075
:101FE00089270895882369F062E070E08DEB96E020
:101FF0000E94BF0F811103C08091A8020895109222
:10200000A8028091A802EBCFCF93C091A802809143
:10201000A9028823D1F00E94E708605A75418F4FCA
:102020009F4F6093A4027093A5028093A6029093A1
:10203000A702C11108C062E070E08BEB96E00E943D
:10204000BF0F811105C0C091A8028C2FCF910895B8
:1020500081E08093A802F7CF9091B60292FB2227ED
:1020600020F9281779F080FB92F99093B6026091DD
:10207000B5027091B60284E090E00E94F92B82E0F4
:102080000E94EF0C0895A4E0B0E0E9E4F0E10C94C4
:10209000ED2A409103025091040260910502709173
:1020A00006022FB7F8948091B1029091B202A091EC
:1020B000B302B091B4022FBF841B950BA60BB70BD4
:1020C00011E084369105A105B10570F10E94A50FBC
:1020D0006E5F7F4F8F4F9F4F69837A838B839C8383
:1020E000809111019091120186509E4F40911001F4
:1020F00050E04530510510F044E050E0BE016F5F04
:102100007F4F0E94B42B82E090E00E94542A182F47
:10211000882351F00E94E708609303027093040241
:102120008093050290930602812F2496E3E00C949D
:10213000092BEF92FF921F93CF93DF9300D000D033
:102140000F92CDB7DEB77B0190E080E00E94542A69
:10215000182F882309F487C04091030150E04115EE
:10216000510511F041E050E06091040170910501CA
:1021700066507E4FCE0105960E94B42B4091F60129
:102180005091F7016091F8017091F9012FB7F8941F
:102190008091B1029091B202A091B302B091B402C9
:1021A0002FBF841B950BA60BB70B84369105A10599
:1021B000B10540F48BEF91E00E9473079D81891770
:1021C00009F451C081E090E00E94542A81111AC0A4
:1021D00010E08091F2019091F301A091F401B0918F
:1021E000F501F70180839183A283B383812F0F9040
:1021F0000F900F900F900F90DF91CF911F91FF9054
:10220000EF90089540910B0150E04530510510F0DA
:1022100044E050E060910C0170910D0166507E4FDA
:10222000CE0101960E94B42B8BEF91E00E947307C0
:102230009D818913CDCF0E94E7086093F6017093CA
:10224000F7018093F8019093F90189819A81AB811C
:10225000BC818093F2019093F301A093F401B093B9
:10226000F50111E0B6CF8091FB019091FC01A091A6
:10227000FD01B091FE0189839A83AB83BC83111168
:10228000E4CFA7CFA8E0B0E0E8E4F1E10C94EE2AB7
:1022900066EE7EEF90E080E00E94F92B60E082E045
:1022A00090E00E94DB2B60E083E090E00E94DB2B5B
:1022B0001092E4011092E30160E074E184E090E0A8
:1022C0000E94F92B60E086E090E00E94DB2B6FEF2C
:1022D00087E090E00E94DB2B40E050E0BA0188E00C
:1022E00090E00E94ED2B60E084E290E00E94DB2B06
:1022F00060E087E190E00E94DB2B60E08CE090E002
:102300000E94DB2B60E08DE090E00E94DB2B1982C5
:102310001A821B821C821D821E821F82188648E040
:1023200050E068E170E0CE0101960E94CB2B40E0C6
:1023300050E0BA0180E290E00E94ED2B40E050E0D6
:10234000BA018FE090E00E94ED2B40E050E0BA012E
:1023500083E190E00E94ED2B2896E2E00C940A2B9A
:102360001F920F920FB60F9211242F933F934F930A
:102370005F936F937F938F939F93AF93BF93EF93ED
:10238000FF938091E10082FF09C08091E20082FF0B
:1023900005C08091E1008B7F8093E1008091DA009D
:1023A00080FF24C08091D80080FF20C08091DA0097
:1023B0008E7F8093DA008091D90080FF9DC080E1FC
:1023C00089BD82E189BD09B400FEFDCF81E0809323
:1023D000DC028091B702811109C00E948A070E9425
:1023E0002B088091E20084608093E2008091E100FC
:1023F00080FF17C08091E20080FF13C08091E2004F
:102400008E7F8093E2008091E20080618093E20001
:102410008091D80080628093D80019BC85E08093B9
:10242000DC028091E10084FF2BC08091E20084FFF8
:1024300027C080E189BD82E189BD89B5982F91705F
:1024400080FFFBCF8091D8008F7D8093D800809152
:10245000E1008F7E8093E1008091E2008F7E809387
:10246000E2008091E20081608093E2008091DD02D1
:10247000882309F447C084E08093DC028091DC0269
:102480008091E10083FF27C08091E20083FF23C099
:102490008091E100877F8093E10082E08093DC02FD
:1024A0001092DD028091E1008E7F8093E1008091A7
:1024B000E2008E7F8093E2008091E2008061809351
:1024C000E20042E060E080E00E94F9078091F000C5
:1024D00088608093F000FF91EF91BF91AF919F9141
:1024E0008F917F916F915F914F913F912F910F90BD
:1024F0000FBE0F901F90189519BC1092DC0210921D
:10250000B70274CF8091E30087FD93E09093DC02E3
:10251000B5CF78941F921FB61F9211248F939F936B
:10252000AF93BF938091B1029091B202A091B30298
:10253000B091B4020196A11DB11D8093B102909398
:10254000B202A093B302B093B402BF91AF919F9136
:102550008F911F901FBE1F9018959C014FB7F89444
:102560008091B1029091B202A091B302B091B402F5
:102570004FBF821B930B08952FB7F8948091B1023F
:102580009091B202A091B302B091B4022FBF08950E
:102590000E94BC129C019091A0028091A102982BF4
:1025A00021F030939D0220939C029091A202809191
:1025B000A302982B21F030939B0220939A02E09182
:1025C000AC02F091AD02309749F082E080939E0218
:1025D0000480F581E02D8EE992E00995089510922E
:1025E000E20180912C01E0E8F1E0882329F180915B
:1025F000B50287FF21C08EE1DF011D928A95E9F7C0
:1026000090E080E00E94770990E080E00E9452090B
:102610001092E1010E943E0E86E0EEE9F2E0DF0159
:102620001D928A95E9F710929702109298021092E3
:1026300099020E94C812089586E0DECFAAE2B0E0B7
:10264000E4E2F3E10C94ED2A8EED92E02091F100AA
:10265000FC012193CF01F2E0863E9F07B9F78091FC
:10266000DF02833009F470C0B8F4813009F447C048
:10267000823009F4B1C08091E80083FF7EC280916E
:10268000DE029091DF029A3008F077C2E92FF0E085
:10269000EF5EF34D0C94762B8A3009F48CC08B30AE
:1026A00009F46FC0893039F78091DE02813219F761
:1026B0008091E2029091E3020297E8F68091E800AF
:1026C000877F8093E8008091E80082FF38C0909176
:1026D000F3008091F200029731F48091F100813093
:1026E00011F0863021F48091F1008093B90280913D
:1026F000E8008B778093E8000E94DA07BCCF8091D6
:10270000DE02813A09F0B7CF8091E800877F80939D
:10271000E8008091E2029091E302892B61F460E28B
:102720008AEB92E070E00E9486088091E8008B7747
:102730008093E800A0CF60E090E080E0F3CF80914C
:10274000DC028111C0CF97CF8091DE02813A09F07F
:1027500092CF8091E2029091E302892B09F08BCF16
:102760008091E800877F8093E8008091E80080FFF7
:10277000FCCF80912C018093F1008091E8008E774E
:10278000B9CF8091DE02813209F075CF8091E202EB
:102790009091E302892B09F06ECF8091E800877F4A
:1027A0008093E8000E94DA078091E00280932C0178
:1027B0000E94EF1260CF8091DE02813209F05BCF80
:1027C0008091E800877F8093E8000E94DA0780917B
:1027D000E1028093B8024FCF8091DE02813A09F086
:1027E0004ACF8091E800877F8093E8008091E800DD
:1027F00080FFFCCF8091B802BECF803899F082383C
:1028000009F0BBC18091E2028F70873008F0B5C13A
:102810008093E9008091EB0085FB882780F9109276
:10282000E90006C08091DA029091DB02911182608A
:102830009091E800977F9093E8008093F1001092C8
:10284000F1008091E8008E7794C1882309F482C159
:10285000823009F092C18091E002811185C180919E
:10286000E2028F702FEF280F263008F086C1809388
:10287000E9002091EB0020FF77C1933031F4809183
:10288000EB0080628093EB006FC19091EB00906150
:102890009093EB0021E030E001C0220F8A95EAF727
:1028A0002093EA001092EA008091EB008860EACF62
:1028B000811163C11091E0021F778091E30080785D
:1028C000812B8093E3008091E800877F8093E8006C
:1028D0000E94DA078091E80080FFFCCF8091E3003E
:1028E00080688093E30082E0111183E08093DC0232
:1028F00044C18058823008F040C18091E00290913C
:10290000E1028C3D23E09207A1F583E08A838AE20D
:1029100089834FB7F894DE01139620E03EE051E240
:10292000E32FF0E050935700E49120FF03C0E295BD
:10293000EF703F5FEF708E2F90E0EA30C0F0C796E7
:102940008D939D932F5F243159F74FBF8091E800FD
:10295000877F8093E8006AE270E0CE0101960E94D2
:1029600086088091E8008B778093E80006C1C096C6
:10297000E7CF4091E2025091E302292F3327233021
:10298000310509F444C078F52130310509F46FC0F0
:102990008BE390E0E5EBF7E02230310509F0EDC084
:1029A0002091E800277F2093E8002091E4023091F5
:1029B000E5028217930708F49C0140E021153105D8
:1029C00009F064C0411162C08091E80082FDC9CF66
:1029D0008091DC02882329F2853019F28091E80089
:1029E00083FFF2CFBECF21323105A9F1223231056A
:1029F00009F0C3C04115510509F443C041305105E8
:102A000009F0BBC086EB90E0EFEBF6E0C9CF992769
:102A100081309105C1F0009759F0029709F0ADC0DF
:102A2000E2E0F8E0E4918E2F90E0E2E0F8E007C009
:102A3000E2E2F8E0E4918E2F90E0E2E2F8E0009725
:102A400009F49BC0ADCFE0E1F8E0E4918E2F90E077
:102A5000E0E1F8E0F4CF4115510571F04130510546
:102A600009F08BC089E090E0E0EEF7E099CF82E1D9
:102A700090E0E0EFF7E094CF89E090E0E7ECF7E05A
:102A80008FCF80E490E0E5E7F7E08ACF8091DC0229
:102A9000882309F466CF853009F463CF8091E8007C
:102AA00083FD5FCF8091E80082FD8ECF8091E800AA
:102AB00080FF84CF9091F3008091F20021153105C1
:102AC00019F08830910550F041E0089709F040E096
:102AD0008091E8008E778093E80070CF4491409316
:102AE000F1003196215031090196E8CF803809F084
:102AF00044C08091E800877F8093E8008091DD02E8
:102B00008093F1009ECE811138C01091E002123006
:102B1000A0F58091E800877F8093E8001093DD02A4
:102B20000E94DA07112311F084E005C08091E300D0
:102B300087FDFACF81E08093DC0242E061EC81E026
:102B40000E94F90742E261EC82E00E94F90780915D
:102B5000DC0213C08091E002813079F481E093308F
:102B600009F080E08093DB021092E9008091E80098
:102B7000877F8093E8000E94DA078091E80083FF56
:102B80000AC08091E800877F8093E8008091EB0085
:102B900080628093EB00AA96E3E00C94092B1F92CD
:102BA0000F920FB60F9211242F933F934F935F9381
:102BB0006F937F938F939F93AF93BF93CF93DF9345
:102BC000EF93FF93D091E900DF708091EC00C82F64
:102BD000C17080FDC0E81092E9008091F000877F0D
:102BE0008093F00078940E941E131092E900809167
:102BF000F00088608093F000CD2BCF70C093E90087
:102C0000FF91EF91DF91CF91BF91AF919F918F9104
:102C10007F916F915F914F913F912F910F900FBED8
:102C20000F901F9018950E94EF122FEF84E39CE005
:102C3000215080409040E1F700C0000088E19CE016
:102C40000FB6F894A895809360000FBE9093600033
:102C5000FFCF662309F45DC08D3C41F40E94BE099C
:102C600081958093A1020E94C81208958E3C19F4A8
:102C70000E94BE09F6CF8F3C31F40E94BE098195B7
:102C80008093A002F0CF803D19F40E94BE09F8CFD6
:102C9000893D29F40E949C098093A202E4CF8A3DD9
:102CA00021F40E949C098195F7CF8B3D31F40E945D
:102CB0009C0981958093A302D6CF8C3D19F40E9484
:102CC0009C09F8CF9FE2980F983070F4815D990BC2
:102CD00021E030E001C0220F8A95EAF780919F023F
:102CE000822B80939F02BFCF8D3D31F4809199025A
:102CF000816080939902B7CF8E3D21F48091990233
:102D00008260F7CF8F3D09F0AECF80919902846049
:102D1000F0CF4091A0028D3C59F48091A10287FF31
:102D20000DC01092A10241110BC01092970208C071
:102D30008E3C81F48091A10218169CF3442381F00B
:102D40008091A2029091A302892B09F08CCF10925E
:102D5000980289CF8F3C49F447FFF0CF1092A00230
:102D60008091A1028111ECCFE0CF803D19F41416BF
:102D7000ACF3E4CF9091A202893D29F41916F4F640
:102D80001092A202DBCF8A3D19F497FFD7CFF8CF7C
:102D90009091A3028B3D29F497FFD0CF1092A3020C
:102DA000CDCF8C3D19F41916CCF3C8CF9FE2980F04
:102DB000983090F4815D990B21E030E0B90102C0B8
:102DC000660F771F8A95E2F7CB01809590919F025D
:102DD000892380939F02B2CF8D3D31F48091990277
:102DE0008E7F80939902AACF8E3D21F48091990223
:102DF0008D7FF7CF8F3D09F0A1CF809199028B7F16
:102E0000F0CF882399F19CEF980F913A40F4682F06
:102E10008EE791E00E94F3080E943E0E089590E232
:102E2000980F983050F4877091E001C0990F8A95FF
:102E3000EAF7892F0E941D0CEFCF9BE5980F933086
:102E400028F490E080E00E947709089598E5980FB3
:102E50009B3128F490E080E00E945209089593E3AA
:102E6000980F933118F460E00E9429160895CF93CB
:102E7000C82F8823D9F18CEF8C0F813AC8F5809147
:102E80002C01882311F18091B50287FF1EC0EC2F21
:102E9000E695E695E695F0E0E258FE4F828190E0F7
:102EA0004C2F477021E030E002C0220F331F4A95BB
:102EB000E2F782239323892B91F06C2F8EE791E028
:102EC0000E94F3080E943E0E0AC0E0E8F1E086E8A6
:102ED00091E02191C21789F38E179F07D1F76C2FCC
:102EE0008EE791E00E941D090E943E0ECF91089549
:102EF00080E28C0F883068F4C77021E030E001C0B8
:102F0000220FCA95EAF78091E201822B8093E201B9
:102F1000EBCFEBE5EC0FE33040F4F0E0E25DFE4F89
:102F2000808190E00E947709E1CFE8E5EC0FEB317A
:102F300050F4F0E0EE0FFF1FEF5CFE4F80819181B7
:102F40000E945209D3CF83E38C0F833178F661E07E
:102F50008C2F0E942916CACF1F93CF93DF93182F6F
:102F6000EB010E9437178FE99FE00197F1F700C04E
:102F700000002197C1F7812F0E940117DF91CF91A7
:102F80001F9108950F931F93CF93DF93C62FD42FD4
:102F9000022FFC0185818823A9F0609322030E94FF
:102FA000BC129093210380932003C77081E001C07D
:102FB000880FCA95EAF70E94AF0EDF91CF911F915B
:102FC0000F91089580912203681334C080912003EB
:102FD000909121030E94AD12883C910558F510E2B2
:102FE0001D0FCD17B9F080E28C0F883040F4C77008
:102FF00081E001C0880FCA95EAF70E94A80E183038
:1030000048F481E09D2F977001C0880F9A95EAF7E8
:103010000E94AF0E6AE070E0802F0E94AC1718305B
:1030200060F6D77081E001C0880FDA95EAF70E9458
:10303000A80EC3CFC77081E001C0880FCA95EAF718
:10304000F6CFCF93DF93C82F0E946E0DD82F0E942A
:103050009E0E8C2F0E9437178AE090E0EFE9FFE088
:103060003197F1F700C000000197C1F78C2F0E9443
:1030700001178D2F0E94930EDF91CF910895B0E03C
:10308000A0E0E5E4F8E10C94E62A8C01FC018481DF
:10309000882309F4A4C061E0C8010E94630DEC011B
:1030A000F8018581882309F4DEC4AE015A959E019A
:1030B00033274115FFE45F0738F030E020E0CF3FD1
:1030C000D10509F008F49E01B90164507109643218
:1030D000710528F02B5231092E30310588F4E0912A
:1030E0002E02F0E0EE0FFF1FED5CFD4F20813181DD
:1030F0002F3F9FE7390721F02F5F3F4F3183208318
:1031000090E290932401D0936F02C0936E029E01CF
:1031100030522115304270F09E013054211530415B
:1031200008F03AC0F8019681907F49F441155F415B
:1031300030F03BC0F8019681907F09F480C4FE0115
:10314000FF27ED33F10560F4E455FF4FE491E09380
:103150002401F80191819093710290819093700203
:10316000C6343EE7D30709F44FC008F022C5C13486
:10317000EEE7DE07C9F108F0FEC4C11528E2D20768
:1031800009F454C0C0343EE7D30789F0C11591E279
:10319000D90709F05DC481C441155F4180F29E01E9
:1031A000205A324520323105D8F2FE01CACF61E003
:1031B00083E090E00E94DB2B81E090E00E94160DFE
:1031C0008091BF01877059F0F8018581882339F01B
:1031D0008091B60282FF03C082E00E94EF0CCDB75F
:1031E000DEB7EAE00C94022B80E591E060C48FE446
:1031F00091E05DC4882321F38AE291E058C48823DA
:10320000F9F28AE492E0CDC48823D1F26AE070E05A
:103210008DE40E94AC17F5CF882391F260E883E03B
:1032200090E00E94DB2B80E890E0C8CFF801968107
:10323000907F09F448C0882309F48FC48CE295E09C
:1032400036C4882309F4BCCF80E594E030C48823D9
:1032500009F4B6CF8FE494E02AC4882309F4B0CFF0
:103260008FE498E024C4882309F4AACF8AE294E08A
:103270001EC4882309F4A4CF8AE298E018C48823E6
:1032800009F49ECF8FE49AE08CC426E241EE61EE11
:10329000C8010E94C21794CF27E245EE65EEF8CF31
:1032A00026E241EE60EEF4CF27E245EE64EEF0CF89
:1032B00026E241EE62EEECCF27E245EE66EEE8CF85
:1032C00028E241E0EBCF882309F447C4109222039F
:1032D000CE019057839708F029C484E090E00E94C3
:1032E000C52B9093B6028093B502FE01E150F047E2
:1032F000E232F10520F4E55EF34D0C94762B8091DB
:10330000B50281608093B50295C08091B602886055
:103310008093B6028FC08091B5028260F3CF809116
:10332000B5028460EFCF8091B5028860EBCF8091C9
:10333000B6028160EDCF8091B6028260E9CF8091C4
:10334000B5028061DFCF8091B5028062DBCF8091D2
:10335000B5028064D7CF0E94EF128091B5028068D9
:10336000D1CF8091B5028C60CDCF8091B6028360C1
:10337000CFCF8091B5028E7FC5CF8091B602877F77
:10338000C7CF8091B5028D7FBDCF8091B5028B7F75
:10339000B9CF8091B502877FB5CF8091B6028E7F7D
:1033A000B7CF8091B6028D7FB3CF8091B5028F7E6B
:1033B000A9CF8091B5028F7DA5CF8091B5028F7B7B
:1033C000A1CF0E94EF128091B5028F779BCF8091A1
:1033D000B502837F97CF8091B6028C7F99CF809181
:1033E000B50282FB992790F921E0922790FB82F9A0
:1033F00090FB83F987CF8091B602982F90959170BA
:103400008E7F892B90FB81F983CF9091B502892F14
:103410008F7B96FF806476CF0E94EF129091B50269
:10342000892F97FB87F980586DCF61E08EE090E09F
:103430000E94DB2B6091B5027091B60284E090E0AF
:103440000E94F92B0E94EF12BBCE60E0EFCF90916B
:10345000B502892F8F7E94FF806154CF9091B50281
:10346000892F8E7F90FF81604DCF9091B602892F7A
:10347000877F93FF88604CCFC330FCE7DF0709F4F8
:1034800099C008F058C0C1153CE7D30709F463C0E0
:10349000C130DC4709F494C0F8018581C081D18135
:1034A000882309F49BC0CE010E942E0CF82E682FB1
:1034B000CE010E94A20CBE018F2D0E94E00A0E9444
:1034C000FF0AD82FC92FA82EF801B580E680E29414
:1034D0003FE0E3228091BF018770F1F0DB2CBB203D
:1034E000E1F0892F807F803451F080E28D0F8830A9
:1034F00098F0E11004C0892F807E803269F08091BD
:10350000B60282FF09C082E00E94EF0C8091BF01E9
:103510008770DD24D3948111D12CCC2EC2942FE05E
:10352000C222FBE0FC1508F4D6C0EC2DF0E0E35C11
:10353000F34D0C94762BCB359CE7D90709F44CC09E
:10354000CC35ECE7DE0709F43DC0CA35DC4709F0AD
:10355000A3CF81E03EC00E94EF122FEF34E38CE056
:10356000215030408040E1F700C0000081E08093AE
:10357000E00080E28093D8001092C900EFE1FEE401
:103580003197F1F700C0000087E090EBDC018093F9
:10359000330590933405A0933505B093360588E143
:1035A0009CE00FB6F894A895809360000FBE9093AE
:1035B0006000FFCF6FEF7FEF90E080E00E94F92B7B
:1035C0000E9413168091B60282FB882780F991E051
:1035D00089270E942C1060CF80E0FBCFCE010E9493
:1035E0006F0CF82E68CF2C2F2F70F22EC07F19F0A1
:1035F000F29490EFF922BB20B9F0FF2069F080E24D
:103600008D0F883010F0A11009C08091E201F82AD6
:10361000F092E2010E943E0E8D2F5BC08091E1018D
:10362000F82AF092E101F6CF8D2F0E940117FF20BA
:1036300009F451C0D05ED83010F0A11004C08F2D15
:103640000E941D0C06C0F0948091E101F822F092D6
:10365000E1010E943E0E3FC03C2F3F70F32EC07F21
:10366000C03219F0F29480EFF822DD2311F1D1304D
:1036700009F489C0BB2009F495C0EE2009F458C0B4
:1036800020E0F801408151816281738184819581BC
:103690000E943E0D8115F1E29F0721F081159842AD
:1036A00009F0BACFF801868180FFB6CF8F7086838C
:1036B0003FC08091B60282FD37C0BB2079F1FF2068
:1036C00039F08091E201F82AF092E2010E943E0E68
:1036D00080E00E943717EC2DE850FF0B349710F470
:1036E0000E94940FDD20A9F08091BF0180FD11C0E0
:1036F000F80115828695869586950E94060DC8016B
:103700000E943F188091BF018695869586950E94FC
:10371000DD0C60E0C8010E94630D61CD80E00E9475
:103720000117FF20C1F28BCFBB2099F0E11004C03C
:103730008F2D0E94AF0ECFCF81E0E812CCCF8091C9
:10374000E0019F2D9823F91631F2F82AF092E0015A
:10375000C2CFE110C0CF8F2D0E94A80E9091E00142
:103760008F2D892329F08F2D809589238093E00167
:1037700080919F019F2D982309F4ADCFF094F822FA
:10378000F0929F01A8CFBB2029F095E09E1508F488
:10379000A2CFCECFE4E0EE1508F49DCF8F2D0E948E
:1037A000A80E99CFEE20D1F3F9E3AF120DC02FEFA1
:1037B00037EE83E0215030408040E1F700C0000048
:1037C0008D2F0E94011787CFEFE3FCE93197F1F7C6
:1037D000F5CF8C2F86958695837069F0813009F03E
:1037E0007ACF8D2F9C2F9370B11002C080E090E0B3
:1037F0000E94520970CF8D2F9C2F9370B11002C080
:1038000080E090E00E94770966CF6B2D8D2F0E949B
:10381000291661CF8C2F837009F03FC0B1105BCFA8
:103820004D2F429546954770440F440F2D2F2F7012
:1038300030E0042E02C0220F331F0A94E2F790E01A
:1038400080E0D4FF09C08FE090E002C0880F991F8C
:103850004A95E2F780959095C695C695C370C2309B
:1038600099F078F44091E3015091E401C13039F0CE
:10387000822B932B842395230E94160D2CCF242B6F
:10388000352B822B932BF8CF822B932B2091E301A6
:103890003091E40182279327EFCF8695BB2011F06A
:1038A0008C2F8170882309F416CF4D2F42954695B1
:1038B0004770440F440F2D2F2F7030E0042E02C0AC
:1038C000220F331F0A94E2F790E080E0D4FF09C092
:1038D0008FE090E002C0880F991F4A95E2F780952B
:1038E0009095C695C695C370C23099F078F4409112
:1038F000650250916602C13039F0822B932B8423EC
:1039000095230E94D80CE7CE242B352B822B932BAA
:10391000F8CF822B932B209165023091660282278B
:103920009327EFCFCF70BB2029F08C2F0E94060D7C
:103930008D2FFFCE8D2F0E94A80E8C2F0E94DD0CA4
:10394000CACE8D2FF2EFAF1699F1FA1570F020EF75
:10395000A216D1F031EFA31691F0BB2009F45BC0A1
:10396000E1105ACE8C2F8F7127C093EFA91639F131
:10397000E4EFAE12F2CF8091B60282FD2EC08C2F02
:103980008F71BB20D9F218C0BB2069F0F4E0FE159E
:1039900008F4A1CECF7181E090E002C0880F991F9A
:1039A000CA95E2F7B8CF25E02E1508F494CEF2CFF1
:1039B0008C2F8F71B110C2CF0E94060D8CCE90E07B
:1039C00080E0BB2009F49DCFCF7181E090E002C080
:1039D000880F991FCA95E2F794CFBB2089F0CF7169
:1039E0008C2F0E94060D8091B60282FF07C038E03E
:1039F000C39FC001112483608093BF018C2FDCCF53
:103A000081E00E94EF0C81E08E1508F064CE82E028
:103A10000E94EF0C60CEEE2079F0893341F49FEFE5
:103A2000E7EEF3E09150E040F040E1F7C7CE8FE3DE
:103A30009CE90197F1F7C2CE8C2F8F717FCFC11512
:103A4000F1E2DF0751F1C11528E2D20709F4EECB0C
:103A5000FE01E851FC47E730F10508F034CCE75BA4
:103A6000F34D0C94762BC634EEE7DE0709F4A8CBB1
:103A700098F5C1342EE7D20709F4A2CBD8F4C115CA
:103A800098E2D90709F4D2CBC034EEE7DE0709F497
:103A900097CBC115F1E2DF07D9F6F8019681907F47
:103AA00009F411CC882309F458C08CE298E00E94F4
:103AB000211886CBC3342EE7D20709F481CB08F452
:103AC0007FCBC4349EE7D90709F47ACBC534EEE73F
:103AD000DE0709F475CBBCCFCB34FEE7DF0709F472
:103AE0006FCB90F4C8343EE7D30709F469CB08F4F0
:103AF00067CBC934EEE7DE0709F462CBCA34FEE7D0
:103B0000DF0709F45DCBA4CFCD342EE7D20709F44B
:103B100057CB08F455CBCE349EE7D90709F450CBE8
:103B2000CF34EEE7DE0709F44BCB92CFC631FCE78A
:103B3000DF0709F0A1CC8091E2018A7A91E009F4D3
:103B400090E090939E0169E2811165E38EE791E038
:103B50000E941D090E943E0E33CBC631DC4709F09E
:103B60009BCC80919E0169E2811165E38EE791E033
:103B70000E94F308EFCFC334EEE7DE0709F43ACB37
:103B800008F435CBC4342EE7D20709F438CBC5345A
:103B90003EE7D30709F05CCF882309F411CB8DE40D
:103BA00092E00E9421186AE070E08AE20E94AC175D
:103BB00007CBCB349EE7D90709F44FCBB8F4C83410
:103BC000FEE7DF0709F43DCB08F426CBC9343EE716
:103BD000D30709F43CCBCA349EE7D90709F038CFA4
:103BE000882309F4EDCA80E598E061CFCD34EEE793
:103BF000DE0709F43ECB08F436CBCE342EE7D207ED
:103C000009F43DCBCF343EE7D30709F021CF882319
:103C100009F4D6CA8FE498E00E9421182DCBCF93E7
:103C2000DF938091BE01807F09F04DC08091BD017E
:103C3000882309F448C0E0911F035091E602C09127
:103C4000B901D091B8016091BA017091BB0147E010
:103C50005E17C9F18E2F90E0E49FF0011124E95125
:103C6000FD4F2481222391F1489FF001499FF00DDF
:103C70001124DF01A951BD4F11962C9111972C13DE
:103C800025C02C912D1322C015962C91159721112A
:103C90001DC012962D913C91261B370B283C3105F7
:103CA000A8F48091BE018F7080618093BE01E351C2
:103CB000FD4F80818F708061808388EB91E00E944E
:103CC0003F180E94240CDF91CF910895FC0131969A
:103CD000E770BECFA4E1B0E0E0E7FEE10C94E32A98
:103CE0008C0186E0F801DE011F9601900D928A9505
:103CF000E1F7D8011496FC9014971596EC9088EB98
:103D0000882E81E0982E8091BC0181112AC0F1108B
:103D100003C0FF24F3941CC0EE20F9F0C8010E94F8
:103D20001B0DF82E8823C9F087E0F801A8EBB1E05D
:103D300001900D928A95E1F78091BC01813031F4B8
:103D40008091B8019091B9010E94620C0E940F1EEF
:103D50008F2D6496EDE00C94FF2AC8010E943F1855
:103D6000D8CFF8017080A180C280D38060E088EB5A
:103D700091E00E94630DAC01B090BD012091BA01A9
:103D80003091BB01BB2009F405C1C601821B930B16
:103D9000883C910508F0BBC0FF2009F4BACF3091F0
:103DA000B901D80111962C9111979091BE01892FDC
:103DB000807F09F06BC0FE2C321314C02091B80133
:103DC0008C9128130FC0E11048C09F7090619093B0
:103DD000BE0188EB91E00E943F188091BE01F8017E
:103DE0008683B6CFE11039C06A2D872D0E94540713
:103DF0006A2D872D0E945407E82E8111A9CF7F8656
:103E0000A88A8F8598890E94620C292F22952F708D
:103E1000243060F49F70223090F09923A1F0D801F3
:103E200016969C91907F79F4FE2C92CF2A5F2F708A
:103E3000223068F0C8010E943F18EB2CF5CF99237F
:103E400011F0882389F3805E883070F3F3CF803FD0
:103E500058F3815F833070F7E7CF8091BE018160B6
:103E60008093BE014115B1E25B0719F0411558423C
:103E700059F488EB91E00E943F1887E0E8EBF1E00D
:103E8000DF011D928A95E9F7F12C62CF321316C03B
:103E90002091B801F8018081281310C0E1100EC0F4
:103EA0009683C8010E943F1887E0F801A8EBB1E0B3
:103EB00001900D928A95E1F7FB2C4ACFC8010E9430
:103EC0001B0D882309F449CFEE2009F446CF8091D9
:103ED000BE01803288F02091B8013091B901398754
:103EE0002887DB86CA869091BC019C871D868E87B9
:103EF000CE0108960E943F1887E0F801A8EBB1E0D8
:103F000001900D928A95E1F70E940F1E02CF8091D9
:103F1000BE01982F907F39F488EB91E00E943F1802
:103F200087E0D401AECFFF2009F4F3CE2091B90190
:103F3000F8019181291311C02091B80190812913B2
:103F40000CC0E1100AC08683C8010E943F1887E0B8
:103F5000D4011D928A95E9F7AFCFC8010E941B0DCD
:103F6000882309F4FACEEE2009F4F7CE8091BE0141
:103F7000803210F22091B8013091B9013A8329833F
:103F8000DC82CB829091BC019D831E828F83CE0107
:103F90000196B0CFC21AD30AB8ECCB16D10408F000
:103FA00061C0FF2009F4B5CEFE2CEE2009F4D5CE79
:103FB0009091B901F8018181981346C09091B801A0
:103FC0008081981341C060E088EB91E00E94630D0E
:103FD0008115F8E29F0741F080F48115A1E29A076C
:103FE00019F081339442A1F487E0F801A8EBB1E025
:103FF00001900D928A95E1F7ABCE8C32E3E49E07F7
:1040000099F38C32FAE49F0779F38133984261F394
:1040100084E6C816D10440F78091BE0180FDE4CF4C
:10402000982F907F09F3D80116968C931697903F9E
:1040300039F0982F907F905F8F70892B16968C9314
:10404000C8010E943F18D0CFC8010E941B0D8111EA
:1040500053CF8091BE0181608093BE01C8010E9450
:104060003F1876CE87E0F40111928A95E9F70CCFDC
:10407000ABE1B0E0EEE3F0E20C94ED2A4E8B5F8B07
:10408000688F798F8A8F9B8F91111092E1011D8A21
:1040900086E0FE017696DE011F9601900D928A95CC
:1040A000E1F78B89882329F061E0CE010F960E9409
:1040B000630D87E0FE013F96DE01189601900D9298
:1040C0008A95E1F7CE0108960E946A1E81110CC004
:1040D00087E0FE013896DE01119601900D928A95D7
:1040E000E1F78C8581110BC017E080911F0390913F
:1040F000E602891331C06B96E3E00C94092B209102
:10410000E60230E0C90101968770992740911F03AC
:104110004817190699F097E0929FD001939FB00D30
:104120001124A951BD4FFE01319601900D929A952F
:10413000E1F78093E6020E94240CD6CF0E94EF1292
:104140001092E60210921F0387E0E8EBF1E0DF0136
:104150001D928A95E9F7C8CF819FC001112489512A
:104160009D4F0E946A1E882331F280911F0390E0C8
:1041700001968770992780931F03B7CFACE0B0E01A
:10418000E4ECF0E20C94E32A8E010F5F1F4F88E00D
:10419000D8011D928A95E9F789E6C82E81E0D82ECC
:1041A000F12CE12CAA24A394B12C23E7822E21E048
:1041B000922EF60181916F018F3F09F442C0F8946D
:1041C000E82FE295EF70F0E021A18F70A50102C009
:1041D000440F551F8A95E2F7CA01922F982B91A39D
:1041E00092A18095892382A3789400C0EDE6F1E046
:1041F000712C31E021912F3F09F46BC0A22FA295C1
:10420000AF70B0E090968C9190E02F7002C09595C1
:1042100087952A95E2F780FD5CC0832F782A330FBB
:104220008E169F0639F7F601319780818F3F11F086
:104230000E94E40950EA5A95F1F7F801EE0DFF1DCE
:1042400070828FEFE81AF80AA4E0EA16F10409F088
:10425000B0CF48E050E0B8018CE092E00E94A72B7C
:10426000009741F028E0F801ACE0B2E001900D9237
:104270002A95E1F700911502892B69F181E080937D
:10428000E9010E94BC129093E8018093E7018091BC
:10429000E7019091E8010E94AD12059700F110E04E
:1042A0000A5E1D4F44E050E06CE072E0C8010E94DD
:1042B000A72BB12C892B51F084E0ECE0F2E0D8017F
:1042C00001900D928A95E1F7BB24B3941092E90115
:1042D00007C080E0A3CF8091E9018111D8CFB12C34
:1042E0000E94710FF82EE0911502882309F472C024
:1042F00019861A861B861C860E2F10E00A5E1D4F3B
:10430000809107028A3088F549E950E1BE01675F74
:104310007F4FC8010E943E0F882309F44AC043E43E
:1043200050E1BE01675F7F4FC8010E943E0F8823A6
:1043300009F43FC0109207028091140290E044E01B
:1043400050E0BE01675F7F4F8A5E9D4F0E94A72BA2
:1043500021E02093F001892BF1F4F12C1F2D812F06
:104360008B292C96EDE00C94FF2A8091EA01909124
:10437000EB010E94AD12843F914030F68091F00134
:10438000882359F3FE01399684E0DF011D928A9556
:10439000E9F71092F001E0911402F0E0EA5EFD4FBF
:1043A00089859A85AB85BC8580839183A283B383FD
:1043B000D5CF809107028F3F31F08F5F8093070246
:1043C0008A3008F4B9CF0E94BC129093EB0180931D
:1043D000EA01D4CFF0E0EA5EFD4F84E0ABEFB1E05C
:1043E00001900D928A95E1F78BEF91E00E9473079F
:1043F0008093FA01C090FF01D0900002E09001028A
:10440000F09002028091EC019091ED01A091EE01FB
:10441000B091EF01C816D906EA06FB0611F410E0C8
:104420009ECFC092EC01D092ED01E092EE01F092AD
:10443000EF010E94710F182F8111F1CF0E94E70840
:10444000C61AD70AE80AF90AC0920802D0920902ED
:10445000E0920A02F0920B0282CFA6E0B0E0E3E322
:10446000F2E20C94EC2A0E94BC128C018091E501CE
:104470009091E6018017910781F019821A820E94BB
:10448000BC12682F49815A81792F80E090E00E9408
:1044900038201093E6010093E5012696E4E00C94A1
:1044A000082B1F921FB61F9211248F939F93AF93D7
:1044B000BF938091B002811113C08091B10290919D
:1044C000B202A091B302B091B4024196A11DB11DF8
:1044D0008093B1029093B202A093B302B093B4025E
:1044E000BF91AF919F918F911F901FBE1F90189504
:1044F000CDB7DEB761970FB6F894DEBF0FBECDBF64
:1045000085B7806885BF85B7806885BF84B7877F9A
:1045100084BF0FB6F894A89580916000886180935D
:104520006000109260000FBE80E890E00FB6F89433
:1045300080936100909361000FBE82EE99E09093AA
:104540007D0180937C010E948A070E942B08809144
:10455000E20084608093E20078948091DC028823FA
:10456000A1F01091E9001F709091EC00892F8170EB
:1045700090FD80E8182B1092E9008091E80083FDFF
:104580000E941E131F701093E90082E084BD93E027
:1045900095BD9AEF97BD80936E001092080210921D
:1045A000090210920A0210920B0290E080E00E9431
:1045B000C52B863E9E4F11F00E9442118EE090E086
:1045C0000E94BD2B91E0811101C090E090931801F1
:1045D0000E94710F81110E946829809118018091B9
:1045E000180194E0811190E09093150284E0891BFA
:1045F0008093140284E90E94E40986E60E94E4099B
:1046000087E90E94E40986EC0E94E4090DE611E0C6
:1046100023E7E22E21E0F22ED8018D918D018F3F0C
:1046200011F00E94E409E016F106B1F788E0E6E136
:10463000F2E0DF01282F1D922A95E9F7ECE0F2E085
:10464000DF011D928A95E9F790E080E00E94C52B7A
:10465000863E9E4F11F00E94421182E090E00E943F
:10466000BD2B80931E0284E090E00E94C52B9093A6
:10467000B6028093B50283E090E00E94BD2B90E0EB
:104680000E94160D0E94710F8111C1C082E08093BB
:10469000920280E8809328030E9422286BE070E059
:1046A0008FE396E00E94BF0F8823E9F18091920288
:1046B00065E070E081FDADC08AE396E00E94BF0F27
:1046C000882389F16DE070E088E296E00E94BF0FD8
:1046D000882349F10E94E708605A75418F4F9F4F28
:1046E0006093A4027093A5028093A6029093A70200
:1046F000EBE2F3E080E092E0DF019C011D922150AB
:104700003040E1F7F0933205E09331058FEF9FEFF2
:1047100090932A038093290381E08093A9028093D8
:10472000A802109293028091B50280688093B5022E
:104730006091B5027091B60284E090E00E94F92B7E
:104740000E94710F811102C00E946B2989E191E0E2
:104750009093AD028093AC029AE0C92ED12CE12C4B
:10476000F12C8091DC0200E112E1853009F48EC069
:104770000E94BE200FE112E086E1A82E82E0B82E52
:10478000D501F80191918D9132E0E732F30709F4F8
:1047900087C09817B9F30E94710F482E912C3324CB
:1047A0003394D5018D905D01F80151908F0158141B
:1047B00029F15824712C66246394852D8621B1F04B
:1047C0004420A1F07F8298860E94BC129A87898734
:1047D0003B8691E0882D862109F490E09C874F81EB
:1047E000588569857A858B850E9438207394660C7C
:1047F000F6E07F12E2CFF80131978082939428E0AF
:104800009212CFCF0E94A50F31E03D874EC080E0CD
:104810003ECF85E396E052CF8091DC02843031F1C7
:104820000E94E90F1092B00288E190E0A0E40FB678
:10483000F894A895809360000FBEA093600083B7A2
:10484000817F846083BF83B7816083BF78948895BC
:1048500083B78E7F83BF0FB6F894A89580916000D0
:10486000886180936000109260000FBE8091DB022F
:10487000882361F00E94BE20E6E1F2E0819181117F
:10488000C3C32EE132E02E173F07C1F78091DC024F
:10489000853009F4C1CF0E94EF120E94940F68CFB7
:1048A000981379CF0E942D221D860E94710F8823B4
:1048B00009F4C7C08090330290903402092C000C98
:1048C000AA08BB088091210190E0E3E3F2E021E037
:1048D00030E03296821793070CF008C180912F02C6
:1048E00090913002A0913102B09132022FB7F8942A
:1048F0004090B1025090B2026090B3027090B40246
:104900002FBF481A590A6A0A7B0A1091210149EC03
:10491000441651046104710414F180912E0290E058
:10492000019669E170E00E94212B80932E02880F8E
:10493000991FFC01ED5CFD4F11821082812F18310F
:1049400008F087E18F5F809321010E94E708609360
:104950002F0270933002809331029093320282E0F2
:1049600088169104A104B1040CF4CDC0A0E6BAEEFF
:10497000A50194010E947C2B4B015C0198EC199FCE
:1049800090011124032E000C440B550B240D351DF2
:10499000461D571DA5E0B0E00E947C2B9B01AC0199
:1049A000C501B4010E94352B29013A01A1EF4A1635
:1049B0005104610471042CF0B0EF4B2E512C612C8A
:1049C000712C80912A0290912B02A0912C02B0911F
:1049D0002D022FB7F8948090B1029090B202A0906F
:1049E000B302B090B4022FBF881A990AAA0ABB0A70
:1049F000B5E68B169104A104B10484F00E94E70887
:104A000060932A0270932B0280932C0290932D02C4
:104A10008091290280932802409227021091280257
:104A2000A0912702A11BBB0BA50194010E94872B1B
:104A300024E630E040E050E00E94572B120F109324
:104A400029028091A902882309F4CBC080919402A5
:104A5000909195020E94AD12C29708F4A2C00E94E4
:104A6000BC1290939502809394028BE293E0909312
:104A70003205809331050E94710F882309F4D1C15A
:104A80008BE696E00E94F80D209165023091660257
:104A9000832F99270097D9F19C0188E0A901F4E0C0
:104AA00056954795FA95E1F74115510511F08C5F40
:104AB0009A01A90156954795569547954115510577
:104AC00011F08E5F9A0136952795232B09F08F5FA1
:104AD000813009F467C18823E1F0823009F465C1AF
:104AE000833009F465C18AE496E015C040815181A4
:104AF000052E000C660B770B840E951EA61EB71EA6
:104B00002F5F3F4FE6CE412C512C32015ACF80E02F
:104B1000C5CF83E696E00E94380E809171020E9414
:104B2000ED06FC01019620812032D9F3CF010E94CD
:104B3000B90E89E796E00E94F80D809170020E94FC
:104B4000ED06FC01019620812032D9F3CF010E94AD
:104B5000B90E85E796E00E94F80D40906E025090E5
:104B60006F0280912201909123014816590609F0A5
:104B700022C180916D02803209F01DC127E632E02A
:104B8000C9012F5F3F4FDC014C914032C9F30E94B5
:104B9000B90E83E796E00E94F80D809124010E94EF
:104BA000780D8091290390912A03892B09F03EC149
:104BB0008091A8028823A9F00E94E7080091A4022E
:104BC0001091A5022091A6023091A702601B710BE3
:104BD000820B930B6F3F7F4F8F4F9F4710F40E94C4
:104BE000E90F4D8541110E94041086E0EEE9F2E0E4
:104BF000DE01119601900D928A95E1F71092A002C4
:104C00001092A1021092A2021092A3028B819C81A9
:104C1000892B09F44AC080919C0290919D020E94C8
:104C2000AD129C0190919702992309F407C221319A
:104C30003105D8F19F3F19F09F5F909397021B8138
:104C4000112359F00E94BE099FEF11160CF491E058
:104C5000899F802D11248093A0021C81112359F07B
:104C60000E94BE099FEF11160CF491E0899F802DE0
:104C700011248093A1023091A0023323B1F020913E
:104C8000A102222391F045EB3403C00111249923A2
:104C900009F4AAC19093A00245EB240390011124CA
:104CA000332309F4A5C13093A1028D819E81892B04
:104CB00009F44AC080919A0290919B020E94AD1221
:104CC0009C0190919802992309F4B4C121353105D2
:104CD000D8F19F3F19F09F5F909398021D81112397
:104CE00059F00E949C099FEF11160CF491E0899FE6
:104CF000802D11248093A2021E81112359F00E945D
:104D00009C099FEF11160CF491E0899F802D1124CE
:104D10008093A3023091A2023323B1F02091A30229
:104D2000222391F045EB3403C0011124992309F4A7
:104D300063C19093A20245EB240390011124332315
:104D400009F45EC13093A30246E050E0BE016F5FFC
:104D50007F4F8EE992E00E94A72B892B61F480910E
:104D6000A0029091A102892B9091A202892B90918F
:104D7000A302892B11F00E94C81286E0FE01319631
:104D8000AEE9B2E001900D928A95E1F70E94940F8E
:104D900090919602891709F4E4CC809396020E94C0
:104DA000E708DFCC8DE596E0B6CE87E596E0B3CE9A
:104DB00080E596E0B0CE509223014092220180E23D
:104DC00080936D02712C612C10926C0257E6852E37
:104DD00052E0952E62E6A62E62E0B62E8401C30153
:104DE000B201A70196010E94352B605D603319F472
:104DF0008016910631F0411451046104710409F4E4
:104E000060E2F8016483C301B201A70196010E9428
:104E1000352B29013A0101501109A016B106F9F606
:104E2000ADCE8BE796E00E94F80DBBCE8091A90233
:104E3000882309F4BDCE809193028111B9CE0E94DE
:104E400004102091290330912A032115310509F41A
:104E5000AFCE80E041E050E0482E512C1A01082EE0
:104E600002C0220C331C0A94E2F7B10162237323BF
:104E7000672B11F48F5FF0CF9091920290FF9AC050
:104E8000880F880F880F8093270110922A01895F6D
:104E90008093280183E080932B0124E630E047E0F3
:104EA00050E065E271E088E70E94C228892B09F092
:104EB0007FCE95E0440C551C9A95E1F780919202C3
:104EC00080FF8AC0E2E7F2E080E2DF011D928A956E
:104ED000E9F7E7E7F1E0F98BE88B43E751E087E09A
:104EE000A82E99249394A889B9896D91B98BA88B20
:104EF000FA018191AF01840D952D911D9C01255DD5
:104F00003C4F3F872E87E62FF0E0EE58FD4F90E0B4
:104F100080E06A2C681AB92C082E01C0BB0C0A94D8
:104F2000EAF76E857F8500E0DB011D91BD011B2145
:104F3000262D201B2770822E022E000C330BB12F42
:104F400001C0BB0F8A94EAF78B2E31952195310968
:104F50002770332701C016952A95EAF7812A108118
:104F6000812A80820F5F0830F9F6019631968830E9
:104F7000910579F6E889F989EB57F14009F0B3CF4B
:104F800004E610E020E230E042E752E060E488E727
:104F90000E94E328892B09F00BCE20943094809155
:104FA000290390912A032822392230922A03209241
:104FB0002903FECD8295880F807680932701920188
:104FC000369527953695279520932A01815E809303
:104FD000280120932B0161CFA201455D5C4F04E6BF
:104FE00010E020E230E0D2CF81E08093A00254CEE6
:104FF00081E08093A10259CE81E08093A2029BCEF2
:1050000081E08093A302A0CE09BD19BD09B400FEC2
:10501000FDCF8091D8008F7D8093D8008091E000F3
:1050200082608093E0008091E00081FDFCCF0E94CF
:10503000EF122CCC232B09F04ECE86CE232B09F079
:10504000FBCD33CE1092B9008CE08093B800089568
:10505000B0E0A0E0EEE2F8E20C94E52AB82EEB0115
:105060000E94BC126C01EE24E394F12CC431D105F2
:1050700060F025E0E22EF12CCF3FDC0731F0CE01CD
:1050800064E170E00E94CA2A7B0184EAA82E94E8B9
:10509000992E1092BC00A092BC000E94BC128C0100
:1050A0008091BC0087FF0DC08091B900887F883057
:1050B000F9F08091B900887F8031D1F00FEF1FEFB8
:1050C00008C0C8010E94AD12E816F90648F70EEFB5
:1050D0001FEFCF3FDC07E9F2C6010E94AD12C817EF
:1050E000D907B8F6C801CDB7DEB7EBE00C94012BB9
:1050F000B092BB009092BC000E94BC128C018091C7
:10510000BC0087FF0AC08091B900887F883111F008
:105110008034A1F610E000E0E5CFC8010E94AD1296
:10512000E816F90660F7D3CF0F931F93CF93DF9361
:10513000EB018093BB0084E88093BC000E94BC120A
:105140008C018091BC0087FF11C02091B900287F9D
:1051500081E090E0283211F490E080E09195819513
:105160009109DF91CF911F910F910895CF3FDC07F7
:1051700041F3C8010E94AD12C817D90710F78EEF8E
:105180009FEFEFCFB0E0A0E0E8ECF8E20C94E82A63
:105190006B018A017901B9010E942828E6010C0DF2
:1051A0001D1DC017D10711F097FF08C024E92093F7
:1051B000BC00CDB7DEB7E8E00C94042BB7018991B1
:1051C0000E949428EECFB0E0A0E0E9EEF8E20C9463
:1051D000E82AC62F6A017901B8010E94282897FDA4
:1051E0000CC0B8018C2F0E949428E601EC0CFD1C29
:1051F000CE15DF0511F097FF08C024E92093BC000D
:10520000CDB7DEB7E8E00C94042BB80189910E9479
:105210009428EECF84E98093BC0008958EE14A9BE8
:1052200002C08150E1F74A9BFECF08955A9880E270
:105230008A95F1F75A9A0895FC013BE03A95F1F707
:1052400098E020E080E031E040E14A95F1F7880FF6
:105250004A9B02C08160232742E04A95F1F7000093
:1052600040E14A95F1F7915079F790E19A95F1F77D
:1052700099B132E03A95F1F7000040E14A95F1F733
:1052800092FB992790F992272081920F908308959D
:10529000A1E0B0E0EEE4F9E20C94EA2A19828C0174
:1052A0007C01E60EF11C0E151F0541F481E0998189
:1052B000911180E02196E6E00C94062B0E940E29C5
:1052C000CE0101960E941C29F80181938F01EBCF3A
:1052D000529A5A9A089552985A9AEA9AE9E6F0E050
:1052E00080818F7C808308956150770B91E001C0AD
:1052F000990F6A95EAF720E031E0911108C0222366
:1053000091F05A9A80E28A95F1F75A980895492FB8
:10531000482339F05A9A232740E24A95F1F79695A7
:10532000ECCF5A98F9CF5A98EDCFFF920F931F9375
:10533000CF93DF93EC018C01060F111DC017D1072D
:1053400029F4CDB7DEB7E5E00C94072BF9900E9465
:10535000162968E08F2D0E947429F0CF1F920F92BA
:105360000FB60F9211240F931F932F933F934F93D8
:105370005F936F937F938F939F93AF93BF93EF93BD
:10538000FF93CF93DF930F92CDB7DEB719820E94C0
:105390000E29CE0101960E941C29082F069506951C
:1053A0000695282F22952570902F9570290F922F02
:1053B000937026952695920F982797708981982B40
:1053C00009F05CC0043008F059C080E18A95F1F71B
:1053D0005A9A529A82E08A95F1F700C05A9888E06A
:1053E000089F80011124D801A050BF4F1696ED915F
:1053F000FC9117973097A9F060916701709168014F
:1054000014962D913C911597260F371F11968D916B
:105410009C911297680F791F13964C9113978C915A
:105420000995F801E050FF4F6381662351F0209108
:1054300067013091680184819581820F931F0E94DA
:1054400095290E94162980E18A95F1F75A98529879
:105450005A9A80E18A95F1F7F801E050FF4F608198
:10546000662351F02091670130916801818192811A
:10547000820F931F0E9448290E940E290F90DF91EE
:10548000CF91FF91EF91BF91AF919F918F917F91BC
:105490006F915F914F913F912F911F910F910F90BD
:1054A0000FBE0F901F9018950F931F93CF93DF930C
:1054B000EC0104970CF04CC0F894529A5A9885E08D
:1054C0008A95F1F700009C2F969595708C2F85702A
:1054D000980F892F83709695969523E0CC0FDD1F4A
:1054E0002A95E1F7980F8E01092B0E94162900C01A
:1054F00068E0802F0E94742980E18A95F1F7529824
:105500005A9A4A9B1EC087E090E04A991CC0FE014F
:10551000E050FF4F63816623F9F0209167013091DD
:10552000680184819581820F931F0E94482981110F
:1055300013C0529A5A9A7894DF91CF911F910F918C
:10554000089500C0DECF019729F4529A5A9A7894B0
:1055500080E0F2CF00C0D9CF0E940E2980E28A9568
:10556000F1F75A98529A80E18A95F1F7C050DF4FCF
:105570006881662351F0209167013091680189812B
:105580009A81820F931F0E9495290E941629789470
:1055900081E0D2CFAA1BBB1B51E107C0AA1FBB1FD2
:1055A000A617B70710F0A61BB70B881F991F5A95AF
:1055B000A9F780959095BC01CD0108952F923F9257
:1055C0004F925F926F927F928F929F92AF92BF9213
:1055D000CF92DF92EF92FF920F931F93CF93DF93BF
:1055E000CDB7DEB7CA1BDB0B0FB6F894DEBF0FBE1C
:1055F000CDBF09942A88398848885F846E847D8469
:105600008C849B84AA84B984C884DF80EE80FD806A
:105610000C811B81AA81B981CE0FD11D0FB6F894E0
:10562000DEBF0FBECDBFED010895991B79E004C028
:10563000991F961708F0961B881F7A95C9F78095D1
:10564000089597FB072E16F4009407D077FD09D034
:105650000E94CA2A07FC05D03EF4909581959F4F81
:105660000895709561957F4F0895A1E21A2EAA1BA7
:10567000BB1BFD010DC0AA1FBB1FEE1FFF1FA21702
:10568000B307E407F50720F0A21BB30BE40BF50BFF
:10569000661F771F881F991F1A9469F76095709588
:1056A000809590959B01AC01BD01CF010895052E19
:1056B00097FB1EF400940E946E2B57FD07D00E94AA
:1056C000352B07FC03D04EF40C946E2B509540956F
:1056D000309521953F4F4F4F5F4F0895909580959E
:1056E000709561957F4F8F4F9F4F0895EE0FFF1F6D
:1056F0000590F491E02D09940E948F2BA59F900DA9
:10570000B49F900DA49F800D911D11240895B7FFA3
:105710000C947C2B0E947C2B821B930B0895A29FE0
:10572000B001B39FC001A39F700D811D1124911D75
:10573000B29F700D811D1124911D0895FB01DC01A4
:1057400002C005900D9241505040D8F70895FB01DA
:10575000DC0104C08D910190801921F4415050402A
:10576000C8F7881B990B0895FB01DC0102C001906A
:105770000D9241505040D8F70895F999FECF92BD4F
:1057800081BDF89A992780B50895A8E1B0E042E07C
:1057900050E00C94012CDC01A40FB51F4150504087
:1057A00048F0CB01840F951F2E910E94DC2B4150B5
:1057B0005040D0F70895262FF999FECF92BD81BDB4
:1057C000F89A019700B4021639F01FBA20BD0FB63F
:1057D000F894FA9AF99A0FBE08950396272F0E941B
:1057E000DC2B0E94DB2B252F0E94DC2B242F0C941A
:1057F000DC2B0196272F0E94DC2B0C94DB2BDC0189
:10580000CB01FC01F999FECF06C0F2BDE1BDF89ACB
:10581000319600B40D9241505040B8F70895F89475
:10582000FFCFFD132514BD152514BD15581479148B
:10583000BD1576158315B9192E1AC1198B198F1933
:10584000C5199319C919D5199F19271AA319D91957
:10585000A719DD19051AAB19E1190C1AB119E719C5
:10586000EF199719CD199B19D119B519EB19FB1916
:10587000151A251A8519BD19351AF31AF31A2C1B96
:105880002C1BE91B051C6B1B6B1B0A1C921CA11C0F
:10589000A11C5019541945194C1958195C19601953
:1058A00000000001000000000000000401000000F2
:1058B000040500000000000001E4081A0F130F0C9B
:1058C0000F01FF00200021007F22000301FF8182E1
:1058D00083E200E900EA00B500B600B700CD00831E
:1058E00001CC008A019201940121022302240225A5
:1058F00002260227022A02B300B4006F0070009F44
:1059000001CB019F02A002FA01946697C6F4F5F656
:0C591000F73133000810181810080000D0
:00000001FF
