:10000000B4C60000EBC60000E9C600000C947827D7
:10001000E5C60000E3C60000E1C60000DFC6000040
:10002000DDC60000DBC600000C9453240C943B2575
:100030000C94C110D3C60000D1C60000CFC600008A
:10004000CDC60000CBC60000C9C60000C7C6000070
:10005000C5C600000C942F24C1C60000BFC6000016
:10006000BDC60000BBC60000B9C60000B7C6000090
:10007000B5C60000B3C60000B1C60000AFC60000A0
:10008000ADC60000ABC60000A9C60000A7C60000B0
:10009000A5C60000A3C60000A1C600009FC60000C0
:1000A0009DC600009BC6000099C60000050109021C
:1000B000A10185020901A1000509190129081500FE
:1000C0002501950875018102050109300931158165
:1000D000257F95027508810609381581257F9501D0
:1000E00075088106050C0A38021581257F95017572
:1000F000088106C0C005010980A101850319012AF4
:10010000B700150126B700950175108100C0050CD8
:100110000901A101850419012AA002150126A002E6
:10012000950175108100C005010906A1018506052C
:100130000719E029E71500250195087501810205D9
:1001400007190029EF1500250195F07501810205B9
:10015000081901290595057501910295017503910D
:1001600001C005010906A101050719E029E71500ED
:100170002501950875018102950175088101050722
:10018000190029FF150026FF009506750881000556
:10019000081901290515002501950575019102959C
:1001A0000175039101C009023B00020100A0FA0998
:1001B0000400000103010100092111010001224492
:1001C0000007058103080001090401000103000084
:1001D0000009211101000122B60007058203200059
:1001E0000112010002000000085346010001000155
:1001F0000200010C0343006F0072006E00650000F6
:1002000000100366006F006F007300740061006EE1
:100210000000000403090400AE00AF00000000006D
:10022000003E5B4F5B3E003E6B4F6B3E001C3E7CD6
:100230003E1C00183C7E3C18001C577D571C001CBF
:100240005E7F5E1C0000183C180000FFE7C3E7FF5C
:1002500000001824180000FFE7DBE7FF0030483AF1
:10026000060E00262979292600407F050507004053
:100270007F05253F005A3CE73C5A007F3E1C1C0886
:1002800000081C1C3E7F0014227F2214005F5F00C8
:100290005F5F0006097F017F00006689956A006044
:1002A000606060600094A2FFA2940008047E0408CD
:1002B0000010207E20100008082A1C0800081C2AB4
:1002C0000808001E10101010000C1E0C1E0C003030
:1002D000383E383000060E3E0E06000000000000DA
:1002E0000000005F000000000700070000147F14FA
:1002F0007F1400242A7F2A12002313086462003628
:100300004956205000000807030000001C2241004D
:10031000000041221C00002A1C7F1C2A0008083E05
:100320000808000080703000000808080808000075
:1003300000606000002010080402003E5149453E64
:100340000000427F4000007249494946002141496E
:100350004D33001814127F10002745454539003CE5
:100360004A494931004121110907003649494936B6
:1003700000464949291E00000014000000004034D6
:10038000000000000814224100141414141400008A
:1003900041221408000201590906003E415D594EF0
:1003A000007C1211127C007F49494936003E4141D0
:1003B0004122007F4141413E007F49494941007F40
:1003C00009090901003E41415173007F0808087F77
:1003D0000000417F4100002040413F01007F0814A0
:1003E0002241007F40404040007F021C027F007F8E
:1003F0000408107F003E4141413E007F0909090683
:10040000003E4151215E007F0919294600264949D5
:1004100049320003017F0103003F4040403F001F7D
:100420002040201F003F4038403F00631408146301
:10043000000304780403006159494D4300007F41E3
:10044000414100020408102000004141417F0004A6
:100450000201020400404040404000000307080041
:10046000002054547840007F2844443800384444E5
:10047000442800384444287F00385454541800005D
:10048000087E0902001824241C78007F08040478E0
:100490000000447D4000002040403D00007F1028C7
:1004A00044000000417F4000007C04780478007C18
:1004B00008040478003844444438007C1824241884
:1004C00000182424187C007C0804040800485454B4
:1004D00054240004043F4424003C4040207C001C81
:1004E0002040201C003C4030403C00442810284460
:1004F000004C9090907C004464544C4400000836BA
:1005000041000000007700000000413608000002B2
:1005100001020402003C2623263C000000000000EB
:100520000000000000000000000000C0E0F0F8F84B
:100530001800C0F0FCFEFFFFFFFFFFFFFF7E000082
:100540000000000000000080C0E0E0E0E0E0E0E04B
:10055000E0C0800000000080C0E0E0E0E0E0E0E01B
:10056000E0C080000000E0E0C0C0E0E0E0E00000AB
:10057000E0E0C0C0E0E0E0E0E0C08000000000801B
:10058000C0E0E0E0E0E0E0E0E0C08000000000006B
:10059000000000000000000000E0F0F0F0E0ECEEF1
:1005A000F7F37020007C7C7C7E007E7E7E7F7F7FE8
:1005B000000080C0E07E5B4F5BFEC00000C000DC3E
:1005C000D7DEDEDED7DC00C0000000000000000047
:1005D000000000000000000000000000000000001B
:1005E00000000000F8FCFEFFE000FFFFFFFFFFFF40
:1005F00080FFFFFFFFFFFFFFFFFF1F07010000005D
:10060000000000000000FFFFFF810000000000006C
:1006100081C3C3C30000FFFFFF8100000000000092
:1006200081FFFFFF0000FFFFFF010000000000004E
:10063000FFFFFF010000000001FFFFFF0000FFFFC0
:10064000FF9D1C1C1C1C1C1C9DDFDFDF000000002C
:100650000000000000000000000F1F3F7F7F7F7F31
:100660007F3F1E0C001F1F1F3F003F3F3F7F7F7FCC
:1006700000307B7F7830202030787F3B0003000FF4
:100680007F0F0F0F7F0F000300000000000000002D
:10069000000000000000000000000000000000005A
:1006A00000000000030F1F3F3F3F3F1F1F3F3F7FE2
:1006B0007F7F3F3F1F3F7F7F7F7F7C7878381C0F95
:1006C00000000000000000010307070707070707F5
:1006D00007030100000000010307070707070707DA
:1006E00007030100000007070700000000000000EA
:1006F00007070700000000000007070700000001CF
:1007000003070707070707070703010000000000AA
:1007100000000000000000000000000000000000D9
:1007200000000000000000000000000000000000C9
:1007300000000000000000000000000000000000B9
:1007400000000000000000000000000000000000A9
:10075000000000000000000000000000DA0281FF3D
:10076000D9F1DB20A4A62EAF00A0C0D30000A1C801
:10077000D30000AED580A81F408D14200080818258
:10078000838485868788898A8B8C8D8E8F909192C1
:100790009394A0A1A2A3A4A5A6A7A8A9AAABACAD17
:1007A000AEAFB0B1B2B3B4C0C1C2C3C4C5C6C7C88E
:1007B000C9CACBCCCDCECFD0D1D2D3D4003A002C25
:1007C000206B007800556E6465660041646A75733D
:1007D00074005261697365004C6F776572004465FF
:1007E0006661756C74004C617965723A20002B2F3C
:1007F00014001A00090013000500E30004001500AE
:10080000160017000A0029461D001B0006000700FD
:10081000190000000000000081522C43E000312745
:1008200033001C0018000F000D00342412000C00CF
:1008300008001100100028453800370036000B0072
:100840000E0000000000000082522A44A2522B0039
:100850005E005B0059005A005F0001002300200089
:100860001E001F00240029005400550056005700A8
:100870002602000000000000015200520100670043
:1008800060005D0062005C006100E2002500220063
:1008900027002100260058002302220236006300B0
:1008A000270200000000000000522A0001002B0077
:1008B000000022022F003000000001003602370243
:1008C000260227023102290023021F022F023002D2
:1008D000240200000000000000520052010000004D
:1008E00000002102350034020000E2002D022E003B
:1008F0002E022D0035022800200225023302380284
:100900001E0200000000000002522A0001002B001D
:1009100049004B0052004E004C000100437E500045
:1009200051004F00447E2900467E417E487E427E33
:10093000477E00000000000000520052010000004D
:100940000000BB00A900BC000000E2000000AD00F8
:10095000A800AE000000280000004D00AA004A00D8
:1009600000000000000000000052457E01002B0046
:1009700000000000CD000000000001000000CF00DA
:10098000CE00D000000029000000000000000000A0
:10099000000000000000000000522C0001000000D8
:1009A0000000DC00D900DB000000E2000000D20003
:1009B000D300D100000028000000D500DA00D400E8
:1009C000000000000000000000522A0001002B007F
:1009D0000000BE000000BD00000001003F003C0020
:1009E0003A003B00400029000000000044004500A0
:1009F0000000000000000000005200520100000052
:100A00000000B200650046000000E20041003E0028
:100A100043003D00420028004700530048003900D1
:100A2000000000000000000000522A0001000052F7
:100A3000007C037C027CA700A600000000000000F0
:100A40000000000000000000497E000000000000DF
:100A500000000000000000000152035200000000EE
:100A60000000000000000000000000000000000086
:100A7000000000000000055200000000000000001F
:100A800000000000000000000252045200002B2F62
:100A900014001A00090013000500E000040015000E
:100AA000160017000A00294D1D001B000600070054
:100AB000190000000000000088522C4AE200312793
:100AC00033001C0018000F000D00342812000C0029
:100AD000080011001000284C3800370036000B00C9
:100AE0000E0000000000000089522A4BA2522B0089
:100AF0005E005B0059005A005F00010023002000E7
:100B00001E001F0024002900540055005600570005
:100B10002602000000000000085207520100670092
:100B200060005D0062005C006100E30025002200BF
:100B3000270021002600580023022202360063000D
:100B4000270200000000000007522A0001002B00CD
:100B5000000022022F0030000000010036023702A0
:100B6000260227023102290023021F022F0230022F
:100B7000240200000000000007520752010000009C
:100B800000002102350034020000E3002D022E0097
:100B90002E022D00350228002002250233023802E1
:100BA0001E0200000000000009522A0001002B0074
:100BB00049004B0052004E004C0001004A0050001A
:100BC00051004F004D0029004D7E4A7E4F7E4B7EE6
:100BD0004E7E000000000000075207520100000096
:100BE0000000AB00A900AC000000E3000000AD0075
:100BF000A800AE000000280000000000AA000000CD
:100C0000000000000000000007524C7E01002B0095
:100C100000000000CD000000000001000000CF0037
:100C2000CE00D000000029000000000000000000FD
:100C3000000000000000000007522C00010000002E
:100C40000000DC00D900DB000000E3000000D2005F
:100C5000D300D100000028000000D500DA00D40045
:100C6000000000000000000007522A0001002B00D5
:100C70000000BE000000BD00000001003F003C007D
:100C80003A003B00400029000000000044004500FD
:100C900000000000000000000752075201000000A1
:100CA0000000B200650046000000E30041003E0085
:100CB00043003D004200280047005300480039002F
:100CC000000000000000000007522A000100075247
:100CD000007C037C027CA700A6000000000000004E
:100CE0000000000000000000407E00000000000046
:100CF000000000000000000008520A52000000003E
:100D000000000000000000000000000000000000E3
:100D10000000000000000C52000000000000000075
:100D2000000000000000000009520B5200002020CB
:100D300020206162636465666768696A6B6C6D6ECA
:100D40006F707172737475767778797A3132333463
:100D5000353637383930524542545F2D3D5B5D5C46
:100D6000233B27602C2E2F20202011241FBECFEFE5
:100D7000DAE0DEBFCDBF04B603FE19C08091730573
:100D800090917405A0917505B09176058730904BD0
:100D9000A740B04B61F41092730510927405109245
:100DA000750510927605E0E0F8E3099500C011E0C2
:100DB000A0E0B1E0ECE1F4E502C005900D92AA3BA1
:100DC000B107D9F725E0AAEBB1E001C01D92A33726
:100DD000B207E1F70E94921E0C94AA2911C98093D0
:100DE0002A0590932B05089580932C0590932D054B
:100DF000089521E030E002C0220F331F8A95E2F708
:100E000080912C0590912D05822B932BEDCF21E025
:100E100030E002C0220F331F8A95E2F7209530950B
:100E200080912C0590912D0582239323DDCF98305E
:100E300090F5863080F5E82FF0E086E0989FE00D91
:100E4000F11D112451E0E1FD54E0E0FD550FE2FDFC
:100E5000529583E0F695E7958A95E1F7EE0FFF1F2F
:100E6000EE0FFF1FE353FB4F20E030E070E04191B5
:100E7000DF01CB01022E02C0969587950A94E2F716
:100E80008695880B8427852384278E932F5F3F4F79
:100E90002430310561F70895292F983070F5863098
:100EA00060F590E036E0239F800D911D1124682F9E
:100EB000677023E0969587952A95E1F7FC01EE0F80
:100EC000FF1FEE0FFF1FE353FB4F40E050E080E0B9
:100ED000219130E0062E02C0369527950A94E2F75C
:100EE0002170042E01C0220F0A94EAF7822B4F5F73
:100EF0005F4F4430510561F7089580E00895E09117
:100F0000330590913205E91302C080E008959F01F6
:100F100057E0E59FF0011124EC5CFA4F5181561324
:100F200006C05081581303C05581541305C02F5F6C
:100F30003F4FF901E770E7CF81E0089580913305D5
:100F400020913205281301C0089501968770FACFC9
:100F500090912E058095892380932E05282F277048
:100F600061F4891751F09091300592FF06C0869583
:100F7000869586954CDF10922E0508958091270561
:100F800090913105892B909128059115C9F0892BF5
:100F900090913601913021F490912F0597FD11C069
:100FA00096E02EEB31E040E09150F90150812F5F47
:100FB0003F4F51114F5F9111F7CF4111109228050A
:100FC00008959EE126EC31E0EECF8095982F809138
:100FD00027058923809327050895972F7830C8F433
:100FE0006630B8F48E30C0F470E026E0929F600D59
:100FF000711D112490E3899F600D711D1124FB0167
:10100000EE0FFF1FE251F84F85919591282F822F07
:10101000089520E090E0FBCF21E0FCCF803E9105D9
:10102000D1F1C8F48133910509F481C048F48932C3
:10103000910509F471C08A32910509F47FC00895C1
:1010400089339105E1F082389105C9F08533910526
:1010500009F45DC00895843E9105D1F148F4823EC3
:10106000910531F1833E910541F181EE90E00895C3
:10107000863E9105C1F1873E9105F1F108952091D9
:101080002F05237009F064C02091300523FF14C0A0
:1010900089E290E0089520912F0520FD45C0309110
:1010A000300530FF09C024FD24C083EE90E0089590
:1010B00020912F0522FDF7CF089520912F0522FDC5
:1010C00044C03091300530FD43C024FFF5CF11C03E
:1010D0002091300521FFF0CF80912F0584FD09C0BC
:1010E00087EE90E0089520912F0523FFE5CF24FFA0
:1010F000F7CF80E090E0089520912F0523FD2BC0CD
:101100003091300531FFE1CF84EE90E008952091D9
:101110002F0525FFD1CFBCCF20912F0525FD1EC067
:101120002091300523FFC8CF89E390E008952091F6
:101130002F0526FFC1CF8AE290E0089520912F0568
:1011400026FFBACF81E390E0089582EE90E0089503
:1011500080EE90E0089586EE90E0089585E390E0BB
:10116000089590912F0592FF10C041E0282F24711F
:10117000243009F040E031E0282F2871283009F0B0
:1011800030E0431711F02CE0822793FF10C041E0BC
:10119000282F2471243109F040E031E0282F2871F4
:1011A000283109F030E0431711F02CE0822730910C
:1011B000300530FF10C051E0282F2171213009F097
:1011C00050E041E0282F2871283009F040E0541702
:1011D00011F029E0822731FF10C041E0282F217152
:1011E000213109F040E031E0282F2871283109F041
:1011F00030E0431711F029E0822794FF02C083FDFD
:10120000877E08950F931F93CF93DF9307DFEC0141
:10121000D23508F04DC0D03508F0C3C0C03ED1056E
:1012200030F5CD3CD10508F09AC0C83AD10578F424
:10123000C53AD10508F090C0C130D10599F1CE0171
:101240000497813A910570F1C0E0D0E02BC0CE0147
:10125000885A91094B97C0F7C85AD0E0CC0FDD1FD0
:10126000C35BDE4F0990D881C02DD4641BC0D0343D
:1012700090F4D03208F0A8C0C83ED10598F0CE0155
:1012800091509F3108F78D2F6CDF082F8C2F90E045
:10129000C5DE902B54C08C2F90E0C0DEDF70C82FCD
:1012A000D92BD06ACE01DF91CF911F910F91089574
:1012B000C03882E5D807B8F5C03682E5D80708F00F
:1012C00056C0C03482E5D807C8F4C03282E5D807DA
:1012D00008F047C08C2F8695869520E2829FC0013A
:1012E0001124C37021E030E002C0220F331FCA95E1
:1012F000E2F7E901C82BD92BDD68D4CF8C2F869576
:101300008695877020E2829FC0011124C37021E07E
:1013100030E002C0220F331FCA95E2F7E901C82B63
:10132000D92BDC68BFCFC03C82E5D80750F48C2FA6
:101330008F71C03AD24580F5982F84EF906AEC0106
:10134000B1CFCE01805C9245809708F07DCFDC2F35
:10135000DF71C0EFD06AA6CFA497D064A3CFD065C9
:10136000A1CF8C2F8F71D82FC1EFD06A9BCF8C2F3C
:1013700086958695877020E2829FC0011124C370F4
:1013800021E030E002C0220F331FCA95E2F7E901E5
:10139000C82BD92BDA6886CFE4DEC0E0D82FD06224
:1013A00081CF8C2F8F71DDDE93E0CC0FDD1F9A95FE
:1013B000E1F7DF70282F84FF04C090E1899F90013E
:1013C0001124C22FD0696ECF8D2F8F71CADE082FE6
:1013D0008C2F90E023DE902BEC01E1CFCF92DF92B7
:1013E000FF920F931F93CF93DF936C0100912C0515
:1013F00010912D0580912A0590912B05082B192B12
:10140000CFE0D0E081E090E00C2E02C0880F991F61
:101410000A94E2F780239123892B61F4219790F7B6
:10142000F12C8F2DDF91CF911F910F91FF90DF90C5
:10143000CF900895FC2EB6018C2FCFDDE3DE01970F
:1014400069F3EFCF1F93CF93DF93EC01611571F038
:10145000411561F0C3DF182F682FCE01E8DCBE0113
:10146000812FBBDDDF91CF911F91089515DD182FDE
:10147000F6CF462FFC01658180819181E3CFCF9328
:10148000DF93EC01ABDFBE01A8DDBCDEDF91CF91C5
:101490000895FC012481211599F080819181EFDF6D
:1014A000282F92959F70963099F060F4925F9F700C
:1014B000923030F4203FB1F038F481E0283E38F02B
:1014C00080E008959A5FF3CF81E0243FC9F7089543
:1014D00091E0213F09F090E081E0283E08F080E0B3
:1014E000892B089581E0089580E00895F894E82F0D
:1014F000E295EF70F0E041A18F7021E001C0220F72
:101500008A95EAF7922F9095942391A392A1822F26
:10151000892B82A378940895FC01AC014C5F5F4F46
:101520008FEF61E39191892728E030E0982F990FA0
:1015300087FF09C0892F862721503040B9F7E4176B
:10154000F50781F70895892FF7CF382F25EB320360
:10155000C001112497FF04C080589109892F089574
:1015600080589F4FFBCF8091E70480FD17C081FD1D
:1015700017C082FD19C08091E604811599F08C3363
:1015800098F428E3829FC00111246CE370E00E946C
:10159000DA286115710551F0862F08956EE0FCCFB1
:1015A0006CE1FACF68E0F8CF68E3F6CF81E0089508
:1015B0008091E70480FD17C081FD17C082FD19C02E
:1015C0008091E504811599F0883298F428E0829F93
:1015D000C001112468E270E00E94DA2861157105EB
:1015E00051F0862F089562E0FCCF64E0FACF61E00D
:1015F000F8CF68E0F6CF81E0089580919B048115D3
:1016000071F0E091C304F091C404309739F0019077
:10161000F081E02D309711F00995089580E008954C
:10162000A3E0B0E0E6E1FBE00C94A7282091FD01E7
:101630003091FE0128173907B1F08093FD01909396
:10164000FE01E091C304F091C404309761F000847E
:10165000F185E02D309739F023E029838A839B833D
:10166000CE01019609952396E2E00C94C328A3E0ED
:10167000B0E0EDE3FBE00C94A7282091FB01309152
:10168000FC0128173907B1F08093FB019093FC010E
:10169000E091C304F091C404309761F00084F185B7
:1016A000E02D309739F024E029838A839B83CE0193
:1016B000019609952396E2E00C94C3289091360197
:1016C000913099F0AEEBB1E0EFEF90E02C91821702
:1016D00059F01196EF3F19F4211101C0E92F9F5FD6
:1016E0009630A1F7EF3FC1F4089590912F0597FF31
:1016F000E9CFE82FE695E695E695803FA8F7F0E07C
:10170000EC53FE4F877021E001C0220F8A95EAF763
:101710008281822B82830895FE2FFF0FFF0BE454FA
:10172000FE4FF8CF90913601913021F490912F0522
:1017300097FD0CC0EEEBF1E09191891302C0DF013F
:101740001E9291E0E43CF907B9F70895E82FE69579
:10175000E695E695803FC8F7F0E0EC53FE4F9DEF2D
:1017600081FD97EF80FF959582FD92958281892377
:10177000828308958091350108952FB7F894609180
:10178000F7017091F8018091F9019091FA012FBF52
:10179000089580919B04811539F0EFDF462F572F74
:1017A000BC01CB01BA010895E8DFDC01CB01409117
:1017B0009D0450919E0460919F047091A004480F75
:1017C000591F6A1F7B1FEDCFFC012091ED01309165
:1017D000EE012617370748F06115710529F490913D
:1017E000E8009E779093E8009B0190E02115310579
:1017F00041F4911106C08091E80082FF32C080E080
:101800000895809109028115C1F18530C1F180915F
:10181000E80083FD30C08091E80082FDECCF80912C
:10182000E80080FFE3CF8091F3004091F200582F51
:101830002115310519F04830510558F091E0483034
:10184000510509F090E04091E8004E774093E800A0
:10185000CDCF81918093F100215031094F5F5F4FCF
:10186000E7CF80910902811541F0853041F08091E8
:10187000E80083FFC0CF81E0089582E0089583E00F
:101880000895982F9093E900891771F07091EC00FA
:101890002091ED005091F00021FD09C09F5F97302D
:1018A00089F78093E9000895762F242F50E0309136
:1018B000EB003E7F3093EB003091ED003D7F3093A5
:1018C000ED003091EB0031603093EB007093EC0051
:1018D0002093ED005093F0002091EE0027FDDECF25
:1018E00008958091E70187FF13C08091E80082FF8F
:1018F00006C08091E8008B778093E800089580917E
:1019000009028111F2CF0895809109028115D9F35E
:101910008091E80080FFF8CF8091E8008E77ECCFCF
:101920002091E4003091E50095E6A9012091EC00BA
:10193000822F817020FF06C08091E80080FF06C0E2
:1019400080E008952091E80022FD1AC080910902EC
:10195000811589F0853089F08091EB0085FD0FC0FD
:101960002091E4003091E50042175307F9F29150BD
:10197000E1F684E0089582E0089583E0089581E02F
:101980000895CF93DF93C8EDD0E088818F7E888360
:10199000E7EDF0E080818160808384E082BF81E0B8
:1019A0008093E60188818E7F8883E2EE1082109218
:1019B000DA00A1EEB0E01C9288818F77888388815D
:1019C0008068888388818F7D888319BC1092090282
:1019D0001092E501109208021092E401A0EE8C91A1
:1019E0008B7F8C9388818160888342E060E080E017
:1019F00048DFA1EEB0E08C918E7F8C93E2EEF0E0B8
:101A0000808181608083808188608083E0EE808136
:101A10008E7F8083888180618883DF91CF91089554
:101A2000E8EDF0E080818E7F80831092E2001092DA
:101A3000DA001092E100A0EEB0E08C9181608C930E
:101A400080818F77808319BCA7ED8C918E7F8C93DA
:101A500080818F7E80831092E6010895A0E0B0E03F
:101A6000E4E3FDE00C949F287C016B015A01809116
:101A700082040AE010E08A3010F001E010E0C1E0DA
:101A8000D0E0B601C701F5010995811115C0219675
:101A90000C171D078CF0CC9F9001CD9F300D300DA1
:101AA000112480E090E045E34A95F1F700000196AB
:101AB00082179307C1F7E5CFCDB7DEB7EAE00C9404
:101AC000BB280F931F93CF93DF93EB018A01909173
:101AD0000902943059F58093E9008FEF9091E80066
:101AE00095FD06C095ED9A95F1F700008150B1F78C
:101AF0008091E80085FF1AC013DF811112C0809128
:101B0000E80085FD06C08091E8008E778093E800AC
:101B1000F3CF88818093F1000150104011F021969D
:101B2000EECF8091E8008E778093E800DF91CF912F
:101B30001F910F910895CF93DF93EC0148E050E09F
:101B4000BC0181E0BEDF88E0FE01AFEEB1E00190B4
:101B50000D928A95E1F7DF91CF91089540E250E030
:101B6000BC0182E0AECF46E050E0BC0182E0A9CFEC
:101B700043E050E0BC0182E0A4CFCF93DF93C1E00B
:101B8000D0E002C0CC0FDD1F8A95E2F76C2F83E016
:101B900090E00E947C29CE0122D9DF91CF91089557
:101BA0009091300592FB222720F9281771F080FBD5
:101BB00092F99093300560912F057091300584E083
:101BC00090E00E94962982E0C3C908958091360171
:101BD000813061F580912F0587FF28C0CFD9809390
:101BE000C50140E250E063EA74E084EC91E00E94B9
:101BF0005929892BD1F080E2E4ECF1E0A3EAB4E0CA
:101C000001900D928A95E1F7E091C304F091C4042C
:101C1000309759F00480F581E02D309731F086E05F
:101C20008093C40184EC91E009950895A7D980932D
:101C3000BC0148E050E065EC74E08CEB91E00E9460
:101C40005929892B91F388E0ECEBF1E0A5ECB4E0A5
:101C500001900D928A95E1F7E091C304F091C404DC
:101C6000309719F30280F381E02D3097F1F28CEB7D
:101C700091E0DACF811511F0A8D9A8CF0895811588
:101C800031F090912705982B909327059FCF0895C9
:101C9000811531F090913105982B9093310596CFB5
:101CA0000895811539F080959091310589238093AD
:101CB00031058CCF089563EE7EEF80E090E00E94C6
:101CC000962960E082E090E00E947C2981E090E02B
:101CD00080932A0510922B0561E083E00E947C2905
:101CE00060E074E184E090E00E94962960E070E09A
:101CF000AB018FE090E00E948E2960E070E0AB01C4
:101D000083E190E00C948E29CF92DF92EF92FF92C4
:101D10001F93CF93DF9300D000D0CDB7DEB7C09034
:101D20006104D0906204E0906304F090640425DDC7
:101D3000DC01CB018C199D09AE09BF0911E0843685
:101D40009105A105B10568F124DDDC01CB01029606
:101D5000A11DB11D89839A83AB83BC8380912D0122
:101D600090912E0187599B4F20912C01422F50E0DA
:101D7000253008F044E09E012F5F3F4FB9010E94DB
:101D8000662983E090E00E941528182F811549F0FC
:101D9000F4DC609361047093620480936304909315
:101DA0006404812F0F900F900F900F90DF91CF91CF
:101DB0001F91FF90EF90DF90CF900895AF92BF9268
:101DC000CF92DF92EF92FF921F93CF93DF9300D0D9
:101DD00000D00F92CDB7DEB75B0180E090E00E94AB
:101DE0001528182F811509F45EC080911701482F1E
:101DF00050E0811141E0609118017091190167591B
:101E00007B4FCE0105960E946629C0907A04D0903F
:101E10007B04E0907C04F0907D04AFDCDC01CB011E
:101E20008C199D09AE09BF0984369105A105B1053C
:101E300030F48AE694E070DB9D818917A1F181E09E
:101E400090E00E9415288115E1F180911F01482F33
:101E500050E0853008F044E060912001709121014C
:101E600067597B4FCE0101960E9466298AE694E06D
:101E700053DB9D81891325C080DC60937A047093C5
:101E80007B0480937C0490937D0489819A81AB814B
:101E9000BC818093760490937704A0937804B093E8
:101EA000790481E00FC080916A0490916B04A09145
:101EB0006C04B0916D0489839A83AB83BC83111148
:101EC000E4CF80E0409176045091770460917804EB
:101ED00070917904F50140835183628373830F907D
:101EE0000F900F900F900F90DF91CF911F91FF9067
:101EF000EF90DF90CF90BF90AF900895A0E0B0E05A
:101F0000E4E8FFE00C94A128EC0144E050E06EE628
:101F100074E00E9459298C01C0906504D090660439
:101F2000E0906704F090680428DCDC01CB018C1998
:101F30009D09AE09BF0984369105A105B10518F4C4
:101F4000C801892BF9F080912501909126018759CC
:101F50009B4F20912401422F50E0253008F044E0AF
:101F6000BE010E94662982E090E00E94152881153A
:101F700051F003DC609365047093660480936704FA
:101F80009093680481E0CDB7DEB7E8E00C94BD28FB
:101F9000AB0124E630E0BC0188E70E944C269C019E
:101FA00081E0232B09F080E0089580915B04811586
:101FB000E9F0E3DBDC01CB01805A9541AF4FBF4F25
:101FC0008093540490935504A0935604B0935704FF
:101FD0008091580481110AC062E070E089E192E0CA
:101FE000D7DF811519F081E080935804089580911E
:101FF0005B04811561F080915804811541F062E025
:1020000070E087E192E0C4DF8111109258040895D6
:10201000CF93DF93682F81E06A3019F06D3029F497
:1020200080E072D0DF91CF91089580912602909147
:10203000270226E0FC01A1E0B2E001900D922A9572
:10204000E1F726E0603E08F455C0FC0111922A95A4
:10205000E9F7C0912602D091270246E050E0BE0188
:1020600081E092E00E9459299E0120553240892B3F
:1020700041F1C90145E0969587954A95E1F741E020
:1020800050E0BA0102C0660F771F8A95E2F7CB01D4
:102090006091520470915304862B972BB9016B5FAA
:1020A0007F4FE5E076956795EA95E1F702C0440F2A
:1020B000551F6A95E2F7842B952B809352049093D9
:1020C00053042A5F3F4F40912802642F70E0C901FA
:1020D0000E948328481B463010F4240F311D3230F3
:1020E00010F020E030E0205B3D4F2093260230933B
:1020F000270298CF629FB0011124655E7D4F46E0B4
:1021000050E00E945029A5CFCF93382FE0912602AE
:10211000F0912702E055F24020912802622F70E0F2
:10212000CF010E948328281B822F311561F066E0C1
:102130000E94CE28C82FC11102C0CF910895C1506E
:1021400080E266DFF8CF8E0F9F2F911D923010F046
:1021500080E090E0805B9D4F809326029093270261
:10216000ECCFCF93DF93EC01FE018491811103C08A
:10217000DF91CF9108954CDF2196F6CFF2DF81E019
:10218000C3CF1F921FB61F9211248F939F93AF93BB
:10219000BF9380910702811113C08091F701909144
:1021A000F801A091F901B091FA014196A11DB11D6C
:1021B0008093F7019093F801A093F901B093FA018D
:1021C000BF91AF919F918F911F901FBE1F90189547
:1021D0002FB7F8948091F7019091F801A091F9013F
:1021E000B091FA012FBF0895CF93DF93EC01F0DF98
:1021F0008C1B9D0BDF91CF910895ACE0B0E0E3E044
:10220000F1E10C949E28FE013196DF0188E01D92D9
:102210008A95E9F783E4C82E81E0D82E7F01AE2E9F
:102220009F2C0DE411E0F60181916F018F3F09F4BD
:102230003CC0F894E82FE295EF70F0E021A18F7098
:1022400041E001C0440F8A95EAF7922F942B91A3A5
:1022500092A1842F8095892382A3789400C0E7E41B
:10226000F1E031E0B12C21912F3F79F0A22FA2951E
:10227000AF70A05EB0E08C9190E02F7002C0959599
:1022800087952A95E2F780FF7DC080E0B82A330F5A
:102290000E171F0741F7F60182918F3F09F026D9EB
:1022A00080EA8A95F1F7F701B0828FEFE81AF80A11
:1022B00087E4C81681E0D80609F0B5CF48E050E0C1
:1022C0006A2D792D83E994E00E945929009749F0FD
:1022D00028E0EA2DF92DA3E9B4E001900D922A95AA
:1022E000E1F70091920410E006571B4F892B09F487
:1022F0004BC081E0809389046BDF809387049093C7
:10230000880480919B04811509F496C07E0189E0C0
:10231000E80EF11CF70184E011928A95E9F78091AB
:1023200082048A3008F053C04EED5EE0B701C80168
:1023300095DB811509F46FC04EE75FE0B701C80176
:102340008DDB811509F467C044E85EE0B701C80180
:1023500085DB811509F45FC01092820480918604A8
:1023600090E044E050E0B70186579B4F0E94592906
:1023700021E020938504892B09F03FC02C96EBE0E7
:102380000C94BA28832F82CF80918904811509F497
:10239000B8CFE0908704F09088041ADF8E199F0967
:1023A000059708F4AECF44E050E063E974E0C8015B
:1023B0000E945929892B41F084E0E3E9F4E0D80137
:1023C00001900D928A95E1F7109289049ACFC090FE
:1023D0008304D0908404FCDE8C199D09843F9140D5
:1023E00008F0A2CF80918504811541F2F70184E0C5
:1023F00011928A95E9F710928504E0918604F0E045
:10240000E657FB4F89859A85AB85BC858083918390
:10241000A283B383B3CF809182048F3F31F4D8DE9F
:102420008093830490938404DDCF8F5F8093820434
:102430008A3008F493CFF3CFE0908604F12CC701E3
:1024400086579B4F7C01F80180819181A281B381E5
:1024500080936A0490936B04A0936C04B0936D0412
:102460008AE694E059D88093690480916E04909133
:102470006F04A0917004B0917104F701808391837F
:10248000A283B383C0907204D0907304E09074046C
:10249000F090750480917E0490917F04A091800457
:1024A000B0918104C816D906EA06FB0609F466CF86
:1024B000C0927E04D0927F04E0928004F092810466
:1024C0005CD9C61AD70AE80AF90AC0929D04D092CC
:1024D0009E04E0929F04F092A00450CF79DE9C010C
:1024E0009091EA048091EB04982B21F020935E04F4
:1024F00030935F049091EC048091ED04982B21F0CF
:1025000020935C0430935D04E091C304F091C40413
:10251000309759F00680F781E02D309731F082E056
:102520008093E80488EE94E009950895611509F414
:1025300040C0E82FED5CE33148F4F0E0E455F64D9F
:102540000C942B2910D881958093EB04C7CF0BD81E
:10255000FBCF09D881958093EA04F8CF04D8FBCF4C
:1025600027D88093EC04F2CF23D88195FACF20D8D6
:1025700081958093ED04EACF1BD8FBCF815D990B49
:1025800021E001C0220F8A95EAF78091E904822BAD
:102590008093E904DBCF8091E70481608093E704B6
:1025A000D5CF8091E7048260F9CF8091E704846001
:1025B000F5CF4091EA048D3C59F48091EB0487FFFC
:1025C0000DC01092EB04411559F41092E60408C0B6
:1025D0008E3C81F48091EB0418169CF3411581F038
:1025E0008091EC049091ED04892B09F0AFCF10920B
:1025F000E504ACCF8F3C41F447FFF0CF1092EA04E2
:102600008091EB048115E0CF803D19F41416B4F3EA
:10261000E5CF9091EC04893D29F41916FCF610924F
:10262000EC04DCCF8A3D19F497FFD8CFF8CF909116
:10263000ED048B3D29F497FFD1CF1092ED04CECF5E
:102640008C3D19F41916CCF3C9CF982F915D9830B1
:1026500078F4815D990B21E001C0220F8A95EAF799
:10266000822F80959091E90489238093E904B6CF65
:102670008D3D31F48091E7048E7F8093E704AECFE7
:102680008E3D21F48091E7048D7FF7CF8F3D09F0D7
:10269000A5CF8091E7048B7FF0CFCF93C82F811512
:1026A000C9F08450813A78F580913601813021F467
:1026B00080912F0587FD10C0EEEBF1E08081C817F7
:1026C000F1F0319681E0E43CF807C1F78C2F0E94CD
:1026D0005E0B7CDACF910895EC2FE695E695E695B2
:1026E000F0E0EC53FE4F828190E04C2F477021E0E8
:1026F00001C0220F4A95EAF78223892B39F38C2FE8
:1027000011D864DAE3CF8C2F805E883060F4C77014
:1027100081E001C0880FCA95EAF7C0912705C82B50
:10272000C0932705D6CF8C2F855A833030F48C2F59
:102730008452990B0E94100BCDCFEC2FE85AEB314D
:1027400050F4F0E0EE0FFF1FED57FE4F80819181B6
:102750000E94370BBFCF8C2F8D5C833108F0BACF2E
:1027600061E08C2FE3DEB6CF811561F1982F945094
:10277000913A18F40E94920B29CA982F905E9830D3
:1027800058F4982F81E091FD84E090FD880F92FD30
:1027900082950E94E507F0CF982F955A933020F448
:1027A00080E090E00C94100B982F985A9B3120F405
:1027B00080E090E00C94370B982F9D5C933110F4DF
:1027C00060E0B4CE08950F931F93CF938C01C12F77
:1027D000C17091FDC2E012FDC46013FDC8608C2F72
:1027E00057DA802F5ADF8FE39CE90197F1F700C099
:1027F0000000802FB9DF8C2F54DACF911F910F91F9
:1028000008951F93CF93DF93182FEB0146DF8FE9D5
:102810009FE00197F1F700C000002197C1F7812FD9
:10282000A3DFDF91CF911F9108951092270580912A
:102830003601813011F580912F0587FF1EC0E6EC2F
:10284000F1E08EE111928A95E9F780E090E00E9434
:10285000100B80E090E00E94370B10923105B6D942
:10286000E8EEF4E086E011928A95E9F71092E6042A
:102870001092E5041092E70431CEEEEBF1E086E031
:10288000E1CFD3DF88E19CE00FB6F894A895809360
:1028900060000FBE90936000FFCFAAE2B0E0E3E5D6
:1028A000F4E10C94A62887EE91E0FC0101962091BA
:1028B000F100208321E08F3E9207B9F78091E80173
:1028C000893009F459C0C8F4823009F4B6C08330A5
:1028D00009F485C0813089F18091E80083FFEAC066
:1028E0008091E7019091E8019A3008F0E3C0E92F68
:1028F000F0E0E154F64D0C942B298A3009F48CC099
:102900008B3051F78091E701813231F78091EB01F3
:102910009091EC01892B01F78091E800877F8093EB
:10292000E8000E94710C81E09091E901911101C0D1
:1029300080E08093360179DFCFCF8091E701813A43
:1029400059F68091E800877F8093E8008091EB0141
:102950009091EC01892B61F060E080E090E070E004
:102960000E94E40B8091E8008B778093E800B4CF5D
:1029700068E08FEE91E0F3CF8091E701813209F0BA
:10298000ABCF8091EB019091EC01029708F0A4CFBE
:102990008091E800877F8093E8008091E80082FFC3
:1029A00019C02091F3008091F200922F029731F428
:1029B0008091F100813011F0863021F48091F10096
:1029C000809335018091E8008B778093E8000E9426
:1029D000710C82CF809109028111DFCF7DCF809170
:1029E000E701813A09F078CF8091EB019091EC01F9
:1029F000892B09F071CF8091E800877F8093E800F0
:102A00008091E80080FFFCCF809136018093F10037
:102A10008091E8008E77D9CF8091E701813209F06B
:102A20005BCF8091E800877F8093E8000E94710C63
:102A30008091EA01809334014FCF8091E701813A80
:102A400009F04ACF8091E800877F8093E800809169
:102A5000E80080FFFCCF80913401D8CF803889F026
:102A6000823841F58091EB018F70873018F58093A3
:102A7000E9008091EB0085FB882780F91092E9003E
:102A800006C080910802880F9091E401892B9091F3
:102A9000E800977F9093E8008093F1001092F10096
:102AA0008091E8008E7723C0811116C08091E901E2
:102AB000813011F18091E80083FF0AC08091E80025
:102AC000877F8093E8008091EB0080628093EB0029
:102AD000AA96E3E00C94C228823061F78091E90164
:102AE000811581F01092E9008091E800877F809342
:102AF000E8000E94710CDECF933009F080E08093F3
:102B00000802F0CF8091EB018F70282F21502630E2
:102B100088F68093E9002091EB0020FFE3CF93300B
:102B200031F48091EB0080628093EB00DBCF9091D9
:102B3000EB0090619093EB0021E001C0220F8A9599
:102B4000EAF72093EA001092EA008091EB00886097
:102B5000EBCF8111AFCF8091E9018F77182F809152
:102B6000E3008078812B8093E3008091E800877FE9
:102B70008093E8000E94710C8091E80080FFFCCFF8
:102B80008091E30080688093E30083E0111101C02D
:102B900082E0809309028ECF8058823008F08ACF7D
:102BA0002091E9013091EA012C3D83E0380791F54D
:102BB00083E08A838AE289834FB7F894DE01139613
:102BC00020E03EE051E2E32FF0E050935700849183
:102BD00020FF03C082958F703F5F8F708A30C0F0F6
:102BE000895C8D931D922F5F243169F74FBF8091CF
:102BF000E800877F8093E8006AE270E0CE010196EA
:102C00000E94E40B8091E8008B778093E80052CF1C
:102C1000805DE7CF832F90E08330910519F160F458
:102C20008130910509F46CC08230910509F042CFE2
:102C30008BE3E6EAF1E029C02091EB013091EC0151
:102C40008132910509F453C08232910509F032CFE7
:102C50002130310508F45CC009F02CCF86EBECEA9A
:102C6000F0E013C0822F90E0213099F1823091057D
:102C7000B9F1009709F01ECFE3E1F2E0E4918E2F65
:102C8000E3E1F2E0009709F415CF2091E800277FF7
:102C90002093E8002091ED013091EE018217930717
:102CA00008F49C0140E021153105B1F5411134C013
:102CB0008091E80082FDA6CF80910902811509F478
:102CC000A1CF853009F49ECF8091E80083FFF0CF3B
:102CD00099CFE1E0F2E0E4918E2FE1E0F2E0D2CF93
:102CE000E3EFF1E0E4918E2FE3EFF1E0CBCF213081
:102CF000310550F009F0DECE89E0E1EDF1E0C5CF1D
:102D000082E1E1EEF1E0C1CF89E0E8EBF1E0BDCF97
:102D100084E4E2E6F1E0B9CF80910902811509F47B
:102D200071CF853009F46ECF8091E80083FD6ACFC2
:102D30008091E80082FDBCCF8091E80080FFB3CF96
:102D40004091F3008091F200942F2115310519F084
:102D50008830910550F041E0089709F040E08091FB
:102D6000E8008E778093E8009ECF44914093F10075
:102D70003196215031090196E8CF803809F09ACE7A
:102D80008091E800877F8093E8008091E50180933F
:102D9000F10086CE81118ECE8091E901182F82300C
:102DA00008F088CE8091E800877F8093E800109338
:102DB000E5010E94710C1115A9F084E080930902CD
:102DC00042E061EC81E00E94410C42E261EC82E071
:102DD0000E94410C80910902843051F482E080937A
:102DE000370168CE8091E30087FDE7CF81E0E6CF31
:102DF00081E0F5CFFF920F931F93CF93DF93C62F00
:102E0000D42FF22E8115A9F060932505E1D9809386
:102E1000FF019093000281E0C1FD84E0C0FD880FB6
:102E2000C2FD82950E943F0ECDB7DEB7E5E00C945F
:102E3000C02880912505681332C00091FF011091D0
:102E40000002C6D9801B910B883C910540F51D2FCF
:102E5000105ECD17A1F0C77001E0802F01C0880F70
:102E6000CA95EAF70E943A0E183048F48D2F877001
:102E700001C0000F8A95EAF7802F0E943F0E6AE09A
:102E800070E08F2DBEDC81E0D1FD84E0D0FD880FA5
:102E9000D2FD8295183040F60E943A0EC5CF81E0EF
:102EA000C1FD84E0C0FD880FC2FD8295F5CFA0E092
:102EB000B0E0EDE5F7E10C94A1287C01FC018481F0
:102EC000811509F48CC061E0C7010E94390AEC0148
:102ED000F7018581811509F46DC0AE0151502C2F89
:102EE00030E05F3418F0D1111DC09E01B90164506B
:102EF00071096432710528F02B5231092E303105E9
:102F000088F4E0912005F0E0EE0FFF1FE251FB4F47
:102F1000208131812F3F9FE7390721F02F5F3F4FFD
:102F200020833183F70191819093240590819093C0
:102F3000230590E290933801C0932105D093220598
:102F40009E0130523032C8F49681903108F4A2C00C
:102F5000EC2FF0E09E0120543E47ED33F10528F4BC
:102F6000E25DF24FE491E09338012031310560F4E5
:102F70002753364DF9010C942B299E0130543031E2
:102F800070F49681903120F7FE01E851FC47E7305C
:102F9000F10508F07CC0E752F64D0C942B295F3107
:102FA000B8F29E01205A32452032310508F472C031
:102FB000FE01D0CF9E0120543E472031310520F73D
:102FC00080912E05877059F0F7018581811539F0C0
:102FD0008091300582FF03C082E00E94A807CDB730
:102FE000DEB7E8E00C94BD2880E00E94BD0DE8CF7C
:102FF00080E594E0E8DBE4CF8FE494E0FBCF80E56C
:1030000098E0F8CF8FE498E0F5CF8AE294E0F2CF31
:103010008FE49AE0D8DB6AE070E08AE2F2DBD0CF9E
:103020008FE498E0D0DB8AE298E0E4CF87E0DDCF60
:1030300080E591E0DFCF8FE491E0DCCF8AE291E0A0
:10304000D9CF8DE492E0E6CF6AE070E08DE4D9DB81
:103050008AE492E0DFCF26E241EE61EECBDEB0CF34
:1030600027E245EE65EEFACF26E241EE60EEF6CFBE
:1030700027E245EE64EEF2CF26E241EE62EEEECFBD
:1030800027E245EE66EEEACF28E241E0EBCF81157C
:1030900009F4A9C3109225059E013057233231054A
:1030A00008F08AC384E090E00E94772980932F057E
:1030B00090933005FE01E150F047E232F10520F433
:1030C000E052F64D0C942B2980912F05816080935E
:1030D0002F0560912F057091300584E090E00E94EB
:1030E0009629A3DB6DCF80913005886080933005F1
:1030F000F0CF80912F058260EACF80912F05846008
:10310000E6CF80912F058860E2CF80913005816005
:10311000EDCF809130058260E9CF80912F058061ED
:10312000D6CF80912F058062D2CF80912F05806409
:10313000CECF7BDB80912F058068C9CF80912F0592
:103140008C60C5CF809130058360D0CF80912F05F2
:103150008E7FBDCF80913005877FC8CF80912F05AE
:103160008D7FB5CF80912F058B7FB1CF80912F05BB
:10317000877FADCF809130058E7FB8CF80913005AD
:103180008D7FB4CF80912F058F7EA1CF80912F05A9
:103190008F7D9DCF80912F058F7B99CF46DB8091CE
:1031A0002F058F7794CF80912F05837F90CF8091CB
:1031B00030058C7F9BCF90912F05892F8B7F92FFBD
:1031C0008460877F92FF886082CF80913005982F3E
:1031D000909590FB80F990FB81F988CF90912F0515
:1031E000892F8F7B96FF806472CF1FDB90912F0514
:1031F000892F97FB87F980586ACF61E08EE090E0D5
:103200000E947C2966CF60E0F9CF90912F05892F2D
:103210008F7E94FF80615BCF90912F05892F8E7FE9
:1032200090FF816054CF90913005892F877F93FF65
:1032300088605CCF89E2D2C289E2E0C29E01205E52
:1032400032452032310528F4811119C08C2F8F713D
:10325000CCCE811509F454C0CB359CE7D90709F4CD
:1032600046C0CC359CE7D907B9F1CA359CE7D907E8
:1032700009F43BC0C1309CE7D90709F440C0C33012
:103280009CE7D907B1F1C115DC4709F039C0CDDAA7
:1032900081E08093E00080E28093D8001092C90022
:1032A0008FE19EE40197F1F700C00000A7E0B0EBCA
:1032B000CD018093730590937405A0937505B09329
:1032C000760588E19CE00FB6F894A895809360009D
:1032D0000FBE90936000FFCF80913005002482FFE5
:1032E0000394802D0E94D00D6BCE81E0FBCF80E057
:1032F000F9CF6FEF7FEF80E090E00E949629C1DA6E
:10330000F70100811181811509F445C0C8010E94AF
:10331000EE09C82F682FC8010E941707B8018C2F2B
:103320000E94ED070E940209D82FC92FF701D5800E
:10333000068102950F7080912E05877001F1CD2CCA
:10334000D114F1F0892F807F803461F08D2F805E61
:103350008830A8F0892F807E803221F4D23078F036
:10336000011569F08091300582FF09C082E00E945A
:10337000A80780912E058770CC24C3948111C12C9D
:10338000EC2FE295EF70C03C08F06FC0F0E0EE5F0C
:10339000F54D0C942B29C8010E944C07C82FBECFB5
:1033A0001C2F1F70C03110F01295107FD114B9F08E
:1033B000111569F08D2F805E883010F0D11109C091
:1033C00080912705812B809327050E94E60D8D2F84
:1033D00046C080913105812B80933105F6CF8D2F2A
:1033E000C3D9111509F441C08D2F805E883010F0CB
:1033F000D11104C0812F0E94E50706C0109580916D
:1034000031058123809331050E94E60D2EC01C2FCB
:103410001F70C07FC03211F01295107FD13078F04C
:1034200009F468C0D11409F472C00115D1F140E06B
:10343000F7016581808191810E94220AC8CF809125
:10344000300582FD2AC0D11461F0111539F0809148
:103450002705812B809327050E94E60D80E01DD96A
:1034600004C080E081D91111C5CFC11409F4BCC0DA
:1034700080912E0580FDB8C0F7011582869586954E
:1034800086950E94F906C70112DD80912E0586956A
:10349000869586950E940707A7C0D11489F0013050
:1034A00020F4812F0E943F0EE0CFF9F6809128058D
:1034B000912F98231917C9F2812B80932805D5CF16
:1034C0000111D3CF812F0E943A0E90912805812FB0
:1034D000892329F0812F8095892380932805809165
:1034E0002905912F982309F4C0CF10951823109324
:1034F0002905BBCFD11421F0063008F0B6CFD1CFCB
:10350000053008F0B2CF812F0E943A0EAECF0115E0
:10351000D1F3D93361F48FEF97EE23E081509040DF
:103520002040E1F700C000008D2F1ED99ECF8FE311
:103530009CE90197F1F7F6CF8C2F869586958370DD
:10354000813060F009F091CF8D2F9C2F9370D110B6
:1035500002C080E090E00E94370B87CF8D2F9C2F18
:103560009370D11002C080E090E00E94100B7DCFDC
:103570006D2D8D2F0E94961278CF8C2F837009F0BD
:1035800046C0D1102FC04D2F429546954770440F2D
:10359000440F2D2F2F7030E0042E02C0220F331F56
:1035A0000A94E2F780E090E0D4FF09C08FE090E059
:1035B00002C0880F991F4A95E2F780959095C695AD
:1035C000C695C370C230D1F0C330A9F040912A052E
:1035D00050912B05C13069F0822B932B84239523C6
:1035E0000E94EF060E94FD0A60E0C7010E94390AAE
:1035F000F6CC242B352B822B932BF2CF822B932BC3
:1036000020912A0530912B0582279327E9CFD114E9
:1036100091F1C0FFE7CF4D2F429546954770440F7B
:10362000440F2D2F2F7030E0042E02C0220F331FC5
:103630000A94E2F780E090E0D4FF09C08FE090E0C8
:1036400002C0880F991F4A95E2F780959095C6951C
:10365000C695C370C230C1F0C33099F040912C05BB
:1036600050912D05C13059F0822B932B8423952343
:103670000E94F406B7CF823008F4B4CFCCCF242B0D
:10368000352B822B932BF4CF822B932B20912C055F
:1036900030912D0582279327EBCFCF70D11439F0CD
:1036A0008C2F0E94F9068D2F0E943F0E9BCF8D2FED
:1036B0000E943A0E8C2F0E94070794CFD23F99F1B7
:1036C00070F4D03FC9F0D13F91F0D11409F45BC040
:1036D000011509F455C08D2F0E944D1383CFD33FA0
:1036E00049F1D43F91F79091300592FD31C08C2F74
:1036F0008F71D11401F31BC0D11499F0053008F07B
:1037000071CFCF7181E090E002C0880F991FCA95F8
:10371000E2F7EC0180912C0590912D058C279D27D7
:10372000A7CF0630ECCF8C2F8F71D110C4CF0E9461
:10373000F90658CF80E090E0D11409F499CFCF7109
:1037400081E090E002C0880F991FCA95E2F790CF00
:10375000D11461F08C2F8F7192FFE9CF982F990FC0
:10376000990F990F936090932E05E1CF81E00E940D
:10377000A807023008F436CF82E00E94A80732CFB3
:103780008C2F8F71D4CF0115A1F0D93369F48FEF4D
:1037900097EE23E0815090402040E1F700C0000008
:1037A0008D2F0E94B4131ECF8FE39CE90197F1F790
:1037B000F5CF8C2F8F717FCFC6319CE7D90709F0E9
:1037C0003DCD809127058A7A91E0811101C090E07A
:1037D00090932605811509F42DCD85E30E945E0B9B
:1037E0000E94E60DEDCBC6319CE7D90709F026CD46
:1037F00080912605811509F41FCD85E30E94920B67
:10380000EFCF80917205803170F480917105811540
:1038100051F0E09133052091320530916D054091D2
:103820006C052E1301C00895BF0187E0E89FF001E9
:103830001124DF01AC5CBA4F14968C91149781155A
:1038400051F111968C911197831325C08C9184139B
:1038500022C015968C91159781111DC012968D91DD
:103860009D91A0916E05B0916F058A1B9B0B883CC2
:10387000910588F4809172058F7080618093720544
:10388000E65CFA4F80818F70806180838CE695E0E2
:103890000EDB0C949E076F5F7F4FFB01E770C1CF7B
:1038A000ADE0B0E0E6E5FCE10C949A288C0186E0FE
:1038B000F801DE01189601900D928A95E1F7F80162
:1038C000F58074808CE6882E85E0982E80917005B6
:1038D00081111FC07114D1F0F11409F46EC1C80137
:1038E0000E94490A811509F468C187E0F801D401F2
:1038F00001900D928A95E1F7872D813031F4809106
:103900006C0590916D050E943F0A7BDFFF24F394C4
:103910005EC08081682E8181582EA280B38060E0D5
:103920008CE695E00E94390AE090710580916E0561
:1039300090916F056501C81AD90AE11409F4C8C04D
:1039400088ECC816D10408F09DC07114F9F290916A
:103950006D05F801218180917205803108F057C012
:10396000291314C020916C05908129130FC0F11008
:1039700048C08F708061809372058CE695E097DA7D
:1039800080917205F8018683F12C21C0F11039C0B5
:1039900040E0652D862D0E947F0740E0652D862D35
:1039A0000E947F07F82E8111EFCF888599850E94AC
:1039B0003F0A292F22952F70903470F49F70223087
:1039C00098F09115A9F0F8019681903188F48F2D27
:1039D0002D96EFE00C94B6282A5F2F70223060F00D
:1039E000C80165DAFE2CF3CF911511F0811579F33A
:1039F000805E883060F3F4CF803F48F3815F83308E
:103A0000F9CF80917205816080937205BDCF291333
:103A100013C020916C05908129130EC0F1100CC0C9
:103A20008683C80144DA87E0F801ACE6B5E001908E
:103A30000D928A95E1F76ACFC8010E94490A811563
:103A400009F4BBC0F11409F4B8C08091720580324A
:103A500080F020916C0530916D0529833A83AB820B
:103A6000BC82909170059D831E828F83CE0101964A
:103A70001EDA87E0F801ACE6B5E001900D928A9578
:103A8000E1F743CF80917205803148F48CE695E0F0
:103A90000EDAF40187E011928A95E9F775CF711477
:103AA00009F434CF20916D05F80191812913C4CF19
:103AB00020916C0590812913BFCFF110BDCF868373
:103AC000C801F5D9F40187E011928A95E9F71ECF74
:103AD00088ECC816D104E8F6711409F417CFF11474
:103AE00009F46BC090916D05F801818198135BC05A
:103AF00090916C058081981356C060E08CE695E04B
:103B00000E94390A883225E4920709F48CCFA8F57F
:103B10008B322FE2920709F486CF38F5813327E202
:103B2000920709F480CF843328E2920709F47BCF0F
:103B30008433944209F477CF84E6C816D10408F0A0
:103B400072CF8091720580FD6ECF803108F46BCF0B
:103B5000F8018683982F907F903F09F462CF982FC9
:103B6000907F905F8F70892B5BCF8C3223E492071C
:103B700009F459CF8A329444DDCF8A322BE492077C
:103B800009F451CF40F4893226E4920709F44BCF6F
:103B90008C329A44CFCF88322CE4920709F443CF79
:103BA00089329D44C7CFC8010E94490A811161CF63
:103BB00080917205816080937205C80178D9A6CE84
:103BC000ABE1B0E0E6EEFDE10C94A5284E8B5F8BF7
:103BD000688F798F8A8F192F9B8F911110923105E1
:103BE0001D8A86E0FE017696DE011F9601900D92F9
:103BF0008A95E1F70A8D011561F00B8B1C8B61E052
:103C0000CE010F960E94390A61E0CE010F960E9404
:103C1000390A0B8B1C8B87E0FE013F96DE0118965C
:103C200001900D928A95E1F7CE01089639DE811157
:103C30002EC0209132053091330587E0AE01485FF8
:103C40005F4FFA0147505109DA0101900D928A95B0
:103C5000E1F78C858115D9F0822F90E083958770EC
:103C600090E0AC0134171506E1F097E0929FD00187
:103C70001124AC5CBA4F9E012F5F3F4FF9010190B8
:103C80000D929A95E1F7409332050E949E0780912C
:103C9000330590913205891311C06B96E4E00C94C2
:103CA000C1280E9415141092320510923305ECE6DB
:103CB000F5E087E011928A95E9F7E9CF27E0829F46
:103CC000C00111248C5C9A4FEBDD811531F380919A
:103CD0003305909134050196877080933305D7CFD3
:103CE000A6E0B0E0E6E7FEE10C94A5280E94E8100B
:103CF0008C018091A1049091A2048017910771F02A
:103D000019821A820E94E810BC0149815A8180E020
:103D100090E056DF0093A1041093A2042696E4E0FD
:103D20000C94C128CDB7DEB729970FB6F894DEBF43
:103D30000FBECDBF85B7806885BF85B7806885BF5A
:103D400084B7877F84BF0FB6F894A89580916000F0
:103D5000886180936000109260000FBE80E890E060
:103D60000FB6F89480936100909361000FBE81E0DC
:103D70008093370184E79AE08093BA019093BB0166
:103D80000E94100D0E94C10C8091E200846080931B
:103D9000E200789480910902811599F08091E90000
:103DA0001091EC008F7010FB112717F9182B10924F
:103DB000E9008091E80083FD0E944D141F7010936C
:103DC000E90082E084BD93E095BD9AEF97BD8093B2
:103DD0006E0010929D0410929E0410929F04109207
:103DE000A0048091D80080618093D8008AE18A95F0
:103DF000F1F700C08091D900182F117080FD04C028
:103E00000E94100D1092090210939B0480E090E034
:103E10000E947729833E9E4F11F00E945B0E8EE038
:103E200090E00E946F2991E0811101C090E0909391
:103E30009C0480919B0481110E94342780919C04F2
:103E400091E08927880F880F8093920494E0981B53
:103E50009093860423E4E22E21E0F22E07E411E0A1
:103E6000F70181917F018F3F11F00E94760A0E15B4
:103E70001F05B1F797E4E92E91E0F92E0DE411E06A
:103E8000F70181917F018F3F11F00E94760A0E1594
:103E90001F05B1F7EAE8F4E088E011928A95E9F7A6
:103EA000E3E9F4E088E011928A95E9F780E090E098
:103EB0000E947729833E9E4F11F00E945B0E82E0A4
:103EC00090E00E946F298093120284E090E00E94AB
:103ED000772980932F059093300583E090E00E942E
:103EE0006F2990E00E94EF0680919B0491E0892762
:103EF000880F8093500480E88093280250D66BE0AE
:103F000070E082E797E00E94C80F8115E9F1809187
:103F1000500465E070E081FDCCC08DE697E00E9422
:103F2000C80F811589F16DE070E08BE597E00E9484
:103F3000C80F811549F10E94BD0BDC01CB01805AED
:103F40009541AF4FBF4F8093540490935504A09375
:103F50005604B0935704E0E5F2E0DF0180E092E020
:103F60001D920197E9F7E0932602F09327028FEF65
:103F70009FEF809352049093530481E080935B04FD
:103F8000809358041092510480919B04811101C0C8
:103F90006ED780E091E08093C3049093C404CE0177
:103FA00001968887998780910902853069F400E13C
:103FB00010E482E1F82E80910902853009F47CC07A
:103FC0000E9415140E94FD0A0E94FD1013E1C12EEB
:103FD00012E0D12E0AE8602E04E0702EF301D60123
:103FE0009D9180812BE132E02A173B0709F4BEC086
:103FF00031969817A9F320909B04BAE0EB2EB2E01B
:10400000FB2EB12CF30151903F01F601A1906F01FD
:10401000A51409F441C0A52400E010E04424439411
:104020008A2D842189F1352C34202114F9F0F701EF
:10403000808190E021E0002E01C0220F0A94EAF76F
:104040008223892B99F40983BA820E94E8108B831A
:104050009C8381E08D8391E0311001C090E09E83CC
:1040600049815A816B817C818D81AADD31100CC020
:1040700081E0002E01C0880F0A94EAF7982F9095EE
:10408000F701808189238083440C0F5F1F4F063026
:10409000110531F6F6015292B3948FEFE81AF80A3F
:1040A0008B2D883009F0AECF0E94C90B81E08F8341
:1040B00061C088E697E033CF80910902843029F10E
:1040C0000E94F70F1092070288E190E00FB6F89473
:1040D000A895809360000FBE1093600083B7817F26
:1040E000846083BF83B7816083BF7894889583B7EA
:1040F0008E7F83BF0FB6F894A89580916000886189
:1041000080936000109260000FBE0E94FD10EAE8EC
:10411000F4E0AAE0B2E080E021912D9391E021113A
:1041200001C090E0892B22E934E02E173F07A1F768
:10413000811509F440CF80910802811509F43BCF25
:1041400009BDF9BC09B400FEFDCF8091D8008F7D78
:104150008093D8008091E00082608093E00080919D
:10416000E00081FDFCCF0E94151425CF981343CFAA
:10417000B7DD1F8200919B04011509F4B3C0C09004
:10418000EE04D090EF04ED2CEE0CEE08FE2C109116
:104190000A01EEEEF4E081E090E0181719060CF049
:1041A000EDC2409022025090230260902402709051
:1041B00025020E94BD0B64197509860997094B01F8
:1041C0005C019601A701F7FE03C020E030E0A901E1
:1041D000A0E6BAEE0E9431292B013C0128EC129F87
:1041E000C00111249401A501092E000C0008280F1C
:1041F000391F401D501DA5E0B0E00E9431299B01F0
:10420000AC01B201C301E9D729013A0181EF481697
:1042100051046104710410F0A0EF4A2E89EC881655
:104220009104A104B10404F18091200590E001966D
:1042300069E170E0BFD780932005880F991F8251F4
:104240009B4FFC0110821182183108F017E11F5FAB
:1042500010930A010E94BD0B609322027093230207
:10426000809324029093250282E0C816D104E104D1
:10427000F1040CF4412CC0901E02D0901F02E0907B
:104280002002F09021020E94BD0B6C197D098E095D
:104290009F096B017C0185E6C816D104E104F10495
:1042A00084F00E94BD0B60931E0270931F028093E6
:1042B00020029093210280911D0280931C02409263
:1042C0001B0210911C02A0911B02A11BBB0B9601AB
:1042D000A701D1D724E630E040E050E0A0D7120F8C
:1042E00010931D0280915B04811509F462C1E09076
:1042F0005904F0905A040E94E8108E199F09C29741
:1043000008F47DC00E94E8108093590490935A04E9
:1043100080E592E08093260290932702011509F42C
:104320007CC286EE97E00E94B11020912D05822F6D
:1043300090E021112FC280912C05922FAC01E4E076
:1043400056954795EA95E1F74115510511F02C5F17
:10435000CA01AC01569547955695479541155105AB
:1043600011F02E5FCA0196958795820F823009F46D
:104370001BC208F011C2811114C28EED97E00E9499
:10438000BE1080912405805D0E94081083EC97E0A8
:104390000E94B11080912305805D0E9408108FEB70
:1043A00097E00E94B1104090210550902205809125
:1043B0000B0190910C014816590609F0FBC1809140
:1043C0002F02803209F0F6C1E9E2F2E08F0181911B
:1043D0008032E1F3F80101900020E9F731977F0185
:1043E0000E151F0508F413C28DEB97E00E94B11063
:1043F000809138010E94081081E00E948410809111
:10440000520490915304892B09F4B8C080915B0445
:10441000811509F4B3C0809151048111AFC00E948D
:10442000D50F8091520490915304009709F4A6C0CF
:1044300080FBEE24E0F8F12C10E080FD0FC01F5F40
:1044400041E0E42EF12C012E02C0EE0CFF1C0A9478
:10445000E2F79C012E213F21232B89F38091500408
:1044600080FFE0C1912F990F990F990F392F395F74
:1044700080E023E090930F018093120130931001AC
:104480002093130124E630E047E050E06DE071E056
:1044900088E7B8D3892B09F071C080E2189FA0018A
:1044A00011248091500480FFCFC1E0E3F2E080E26C
:1044B00011928A95E9F70DE311E029E3C22E21E07C
:1044C000D22E61E471E0D801ED918D01D6018D917C
:1044D0006D011A01280E311CF0E0E05DFD4F20E077
:1044E00030E097E0492E421A77247394022E01C0DF
:1044F000770C0A94EAF7C101805B9D4F5C0190E064
:10450000D5018D915D018721A42DA91BA770B0E075
:10451000982E0A2E01C0990C0A94EAF7B195A1953C
:10452000B109A77001C08695AA95EAF78929A081EB
:10453000A82BA0839F5F983019F72F5F3F4F3196CC
:104540002830310571F66017710709F0BCCF04E619
:1045500010E020E230E040E352E060E488E7E2D39C
:10456000892B61F4E094F09480915204909153046B
:10457000E822F922E0925204F09253048091580408
:104580008115B9F00E94BD0B00915404109155049F
:104590002091560430915704DC01CB01801B910B14
:1045A000A20BB30B8F3F9F4FAF4FBF4710F40E943A
:1045B000F70F8F8181110E94D50F86E0E8EEF4E0BD
:1045C000A885B98501900D928A95E1F7B090E9042C
:1045D000D090EA04E090EB04C090EC04F090ED047D
:1045E0001092EA041092EB041092EC041092ED0485
:1045F0008E2D8D2909F449C000915E0410915F044D
:104600000E94E810AC019091E60421E030E09111A5
:1046100001C020E022953295307F3227207F32275B
:10462000401B510B2417350780F59F3F19F09F5F02
:104630009093E604D11459F00E94B30A91E01D143E
:104640000CF09FEF899F802D11248093EA04E114E0
:1046500059F00E94B30A91E01E140CF09FEF899F5D
:10466000802D11248093EB048091EA04811569F078
:104670001091EB04111549F00E94A50A8093EA04F9
:10468000812F0E94A50A8093EB048F2D8C2909F4B9
:1046900041C000915C0410915D040E94E810801BF1
:1046A000910B9C019091E504911509F4D4C021353A
:1046B000310580F19F3F19F09F5F9093E504C1148D
:1046C00059F00E94D80A91E01C140CF09FEF899FCA
:1046D000802D11248093EC04F11459F00E94D80A23
:1046E00091E01F140CF09FEF899F802D112480937F
:1046F000ED048091EC04811569F01091ED04111521
:1047000049F00E94A50A8093EC04812F0E94A50A1B
:104710008093ED048091E9048B1119C08091EA0423
:10472000811511F0D81213C02091EB04211511F05E
:10473000E2120DC09091ED04911511F0F91207C02D
:104740003091EC04311103C0822B892B11F00E94AF
:104750006E1286E0E885F985A8EEB4E001900D922E
:104760008A95E1F70E94FD0A90916004891709F487
:104770001ACC809360040E94BD0B15CC3296208128
:104780003181032E000C0008C20ED31EE01CF01C69
:10479000019603CD28E0D2CD833049F085EC97E037
:1047A000EECD88ED97E0EBCD82ED97E0E8CD8BEC98
:1047B00097E0E5CD40920B0150920C0180E280938E
:1047C0002F02612C712C10922E025EE2E52E52E037
:1047D000F52E8301B201C3012AE030E040E050E051
:1047E000FCD4605D603341F40115110529F04528C2
:1047F0004628472809F460E2F70162937F01290106
:104800003A010F5F1F4F0530110521F7DDCDF8018B
:1048100081918F010E940810E3CD8DE797E00E94FF
:10482000B110EDCD20E2129FC0011124880F492F55
:10483000441F550B5195242F912F9295990F9076E7
:10484000392F315E842F16CE405B5D4F04E610E0B9
:1048500020E230E082CE232B09F02ECF5BCF78947C
:104860001F921FB61F9211248F939F93AF93BF93F4
:104870008091F7019091F801A091F901B091FA01AE
:104880000196A11DB11D8093F7019093F801A093AB
:10489000F901B093FA01BF91AF919F918F911F9051
:1048A0001FBE1F9018951F920F920FB60F921124E2
:1048B0002F933F934F935F936F937F938F939F9328
:1048C000AF93BF93EF93FF938091E10082FF09C004
:1048D0008091E20082FF05C08091E1008B7F809390
:1048E000E1008091DA0080FF24C08091D80080FF31
:1048F00020C08091DA008E7F8093DA008091D90009
:1049000080FFA9C080E189BD82E189BD09B400FEB4
:10491000FDCF81E0809309028091E601811109C0F9
:104920000E94100D0E94C10C8091E200846080936F
:10493000E2008091E10080FF1AC08091E20080FFD8
:1049400016C08091E2008E7F8093E2008091E200A9
:1049500080618093E2008091D80080628093D800CB
:1049600019BC85E08093090283E080933701809130
:10497000E10084FF2FC08091E20084FF2BC080E122
:1049800089BD82E189BD09B400FEFDCF8091D800C8
:104990008F7D8093D8008091E1008F7E8093E1002D
:1049A0008091E2008F7E8093E2008091E20081603E
:1049B0008093E2008091E501811509F452C084E002
:1049C0008093090280910902843009F052C082E08C
:1049D000809337018091E10083FF2CC08091E20039
:1049E00083FF28C08091E100877F8093E10082E00F
:1049F000809309021092E5018091E1008E7F8093FF
:104A0000E1008091E2008E7F8093E2008091E200DD
:104A100080618093E20042E060E080E00E94410C0F
:104A20008091F00088608093F00081E080933701EE
:104A300080933601FF91EF91BF91AF919F918F913C
:104A40007F916F915F914F913F912F910F900FBE8A
:104A50000F901F90189519BC109209021092E60150
:104A600068CF8091E30087FF02C083E0A9CF81E097
:104A7000A7CF81E0ADCF1F920F920FB60F921124F6
:104A80001F932F933F934F935F936F937F938F93D6
:104A90009F93AF93BF93CF93DF93EF93FF93E9EE91
:104AA000F0E080811091EC008F7010FB112717F956
:104AB000182B1082C0EFD0E08881877F888378949C
:104AC0000E944D14E9EEF0E01082888188608883AE
:104AD0001F701083FF91EF91DF91CF91BF91AF9144
:104AE0009F918F917F916F915F914F913F912F9106
:104AF0001F910F900FBE0F901F901895EF92FF928D
:104B00001F93CF93DF93182FEB011092BC0084EA20
:104B10008093BC000E94E8107C018091BC0087FF5C
:104B200026C08091B900887F883029F08091B90033
:104B3000887F803189F51093BB0084E88093BC00A6
:104B40000E94E8107C018091BC0087FF1EC020916C
:104B5000B900287F80E090E0283189F081E090E082
:104B6000203409F480E091958195910908C0C7012E
:104B70000E94F410C817D90780F68EEF9FEFDF91DF
:104B8000CF911F91FF90EF900895C7010E94F410FC
:104B9000C817D907C0F6F1CF8FEF9FEFF0CF109273
:104BA000B9008CE08093B80008950F931F93CF93C2
:104BB000DF93EB018093BB0084E88093BC000E94EC
:104BC000E8108C018091BC0087FF10C02091B900D3
:104BD000287F81E090E0283209F480E0919581956A
:104BE0009109DF91CF911F910F910895CF3FDC077D
:104BF00049F3C8010E94F410C817D90718F78EEFBF
:104C00009FEFEFCFA0E0B0E0E7E0F6E295C2982E8C
:104C1000862E772E6A0179010E94E8105C0184E1FA
:104C2000E816F10410F18FEFE816FE0409F1C70150
:104C300064E170E068D2162F072F612F702F892D45
:104C40005DDFEC01892BB1F4082D172DC00ED11EAC
:104C50000C151D0511F02097C1F084E98093BC006C
:104C6000CE01CDB7DEB7EDE083C211E000E0E5CFC5
:104C700015E0FCCF8FEFE816FE04F9F2C5010E94A3
:104C8000F410E816F906C8F6DFCFB701F8018191F4
:104C90008F018BDFEC01DCCFA0E0B0E0E1E5F6E2D4
:104CA0004BC2982E862E772E6A0189010E94E81049
:104CB0005C010431110500F10F3F100701F1C8013B
:104CC00064E170E020D2EB01BE01892D17DF7C0189
:104CD000892BB9F4C82DD72DCC0EDD1ECC15DD05E2
:104CE00019F0E114F104B9F084E98093BC00C70124
:104CF000CDB7DEB7EDE03CC2C1E0D0E0E5CFC5E026
:104D0000FCCF0F3F100701F3C5010E94F4100817F4
:104D10001907D0F6DFCFFE018491B80146DF7C0190
:104D20002196DCCFA0E0B0E0E7E9F6E204C2982EDD
:104D3000862E742E652E6901E8010E94E8105C0140
:104D40000431110508F10F3F100711F1C80164E1AA
:104D500070E0D9D1F62EE72E6F2D7E2D892DCEDE77
:104D60008C01892BC1F0CF3FDC07B1F3C5010E9454
:104D7000F410C817D90780F784E98093BC00C801F4
:104D8000CDB7DEB7EEE0F3C1FF24F394E12CE4CF1E
:104D900085E0F82EFBCFBE01882D07DF8C01E72CC4
:104DA000F62CCE0CDF1CEC14FD0431F301151105BB
:104DB00019F7BE01F70181917F01F7DE8C01F3CF76
:104DC0008EE14A9B02C08150E1F74A9BFECF0895D5
:104DD0005A9880E28A95F1F75A9A0895FC018BE07F
:104DE0008A95F1F728E080E090E031E040E14A95D3
:104DF000F1F7880F4A9B02C08160932742E04A95F1
:104E0000F1F7000040E14A95F1F7215079F720E1F0
:104E10002A95F1F729B132E03A95F1F7000030E137
:104E20003A95F1F731E022FD93272081920F90838C
:104E30000895A1E0B0E0EEE1F7E285C119828C01AE
:104E40007C01E60EF11CBCDFCE010196C7DFF80144
:104E500081938F01EE15FF05B1F781E099819111E2
:104E600080E02196E6E08BC1529A5A9A08955298B2
:104E70005A9AEA9AE9E6F0E080818F7C808308956F
:104E80006150770B91E001C0990F6A95EAF7692F9D
:104E900090E021E0611108C0911591F05A9A80E2EA
:104EA0008A95F1F75A980895362F382339F05A9A8F
:104EB000922730E23A95F1F76695ECCF5A98F9CF00
:104EC0005A98EDCFFF920F931F93CF93DF93EC018E
:104ED0008C01060F111D8991F82E7ADF68E08F2D65
:104EE000CFDFC017D107B9F7CDB7DEB7E5E048C1CE
:104EF0001F920F920FB60F9211240F931F932F93AF
:104F00003F934F935F936F937F938F939F93AF9351
:104F1000BF93EF93FF93CF93DF930F92CDB7DEB79D
:104F200019824EDFCE01019659DF082F06950695AE
:104F30000695282F22952570902F9570920F292F76
:104F4000237096959695920F982797708981892B53
:104F500009F055C0053008F052C080E18A95F1F79C
:104F60005A9A529A82E08A95F1F700C05A9888E0DE
:104F7000089F80011124D801AC5EBE4F1696ED91BA
:104F8000FD911897309791F0609141017091420125
:104F900014962D913D91260F371F15978D919D9158
:104FA000680F791F4C9113978C910995F801EC5E6D
:104FB000FE4F6381611549F020914101309142011A
:104FC00084819581820F931F7DDF02DF80E18A95C6
:104FD000F1F75A9852985A9A80E18A95F1F7F801B8
:104FE000EC5EFE4F6081611549F0209141013091E6
:104FF000420181819281820F931F1BDFE1DE0F90BE
:10500000DF91CF91FF91EF91BF91AF919F918F91E0
:105010007F916F915F914F913F912F911F910F91D0
:105020000F900FBE0F901F9018950F931F93CF9363
:10503000DF93EC0105970CF05EC0F894529A5A98F1
:1050400085E08A95F1F700009C2F969595708C2F3E
:105050008570980F892F837096959695292F93E0E8
:10506000CC0FDD1F9A95E1F7280F822F8C2B082F8C
:10507000AFDE00C068E0802F03DF80E18A95F1F7A2
:1050800052985A9A4A9B30C087E090E04A992EC0C5
:10509000FE01EC5EFE4F6381611559F020914101E4
:1050A0003091420184819581820F931FC2DE811568
:1050B000F9F086DE80E28A95F1F75A98529A80E1FB
:1050C0008A95F1F7CC5EDE4F6881611549F0209139
:1050D00041013091420189819A81820F931FF2DE52
:1050E00077DE789481E008C000C0CCCF019749F406
:1050F000529A5A9A789480E0DF91CF911F910F9144
:10510000089500C0C3CFAA1BBB1B51E107C0AA1F53
:10511000BB1FA617B70710F0A61BB70B881F991F58
:105120005A95A9F780959095BC01CD0108952F92CD
:105130003F924F925F926F927F928F929F92AF9227
:10514000BF92CF92DF92EF92FF920F931F93CF9374
:10515000DF93CDB7DEB7CA1BDB0B0FB6F894DEBF0B
:105160000FBECDBF09942A88398848885F846E8431
:105170007D848C849B84AA84B984C884DF80EE807B
:10518000FD800C811B81AA81B981CE0FD11D0FB684
:10519000F894DEBF0FBECDBFED010895992778E0EA
:1051A000880F991F961708F0961B881F7A95C9F7E4
:1051B0008095089597FB072E16F4009406D077FD8E
:1051C00008D0A1DF07FC05D03EF4909581959F4F54
:1051D0000895709561957F4F0895A1E21A2EAA1B3C
:1051E000BB1BFD010DC0AA1FBB1FEE1FFF1FA21797
:1051F000B307E407F50720F0A21BB30BE40BF50B94
:10520000661F771F881F991F1A9469F7609570951C
:10521000809590959B01AC01BD01CF010895052EAD
:1052200097FB16F400940FD057FD05D0D6DF07FC8E
:1052300002D046F408C050954095309521953F4FD7
:105240004F4F5F4F089590958095709561957F4F72
:105250008F4F9F4F0895EE0FFF1F0590F491E02DA3
:1052600009940FD0A59F900DB49F900DA49F800D21
:10527000911D11240895B7FFF4CFF3DF821B930B28
:105280000895A29FB001B39FC001A39F700D811D1F
:105290001124911DB29F700D811D1124911D08953F
:1052A000FB01DC0102C005900D9241505040D8F73F
:1052B0000895FB01DC0104C08D910190801921F457
:1052C00041505040C8F7881B990B0895FB01DC0141
:1052D00002C001900D9241505040D8F70895F999BD
:1052E000FECF92BD81BDF89A992780B50895A8E1B7
:1052F000B0E042E050E020C0262FF999FECF92BDE9
:1053000081BDF89A019700B4021639F01FBA20BD8A
:105310000FB6F894FA9AF99A0FBE08950396272FBC
:10532000ECDFEADF252FE9DF242FE7CF0196272FD7
:10533000E4DFE2CFDC01CB01FC01F999FECF06C02E
:10534000F2BDE1BDF89A319600B40D924150504043
:10535000B8F70895F894FFCFA212A712A912AE12BF
:10536000BE12BE12BE12BE12BE12BE12BE12BE12BD
:10537000B012B412B712BC12CB12D112D5122E1524
:1053800054155A1554155A15A915CC155A15BD168C
:10539000CA16F417F817FC17FF1702180518131888
:1053A00008181018161818181B181E182818211875
:1053B0002418341838182B1830183C184018441882
:1053C000A6180C19AE1879187D18B2188118B618DD
:1053D000C2188D1805199118C6189518CA18EE1814
:1053E0009918CE18F5189E18D318DB188518BA1816
:1053F0008918BE18A218D718E518FD1803197318D4
:10540000AA181319D019D019071A071A9C1AB81A12
:0C541000351A351ABD1A4D1B5E1B5E1BC1
:10541C00BA0B9B0DAE0DB30DB80D01FF00002100B2
:10542C007F220003000000010000000000000004C7
:10543C000100000004050000000000000409000049
:10544C0000000000000001002000081018181008CF
:10545C00006904946697C6F4F5F6F73133E200E977
:10546C0000EA00B500B600B700CD008301CC008A7D
:10547C000192019401210223022402250226022713
:10548C00022A02B300B4006F0070009F01CB019F91
:10549C0002A002E200E900EA00B500B600B700CDB8
:1054AC00008301CC008A0192019401210223022481
:1054BC00022502260227022A02B300B4006F0070F4
:0A54CC00009F01CB019F02A0020027
:00000001FF
